:020000040800F2
:1030000000C00020693300087133000879330008DC
:1030100001340008093400085D3400080000000095
:10302000000000000000000000000000B1340008B3
:10303000B934000800000000C1340008C934000899
:10304000E1340008E1340008E1340008E13400080C
:10305000E1340008E1340008E1340008E1340008FC
:10306000E1340008E1340008E1340008E1340008EC
:10307000E1340008E1340008E1340008E1340008DC
:10308000E1340008E1340008E1340008E1340008CC
:10309000E1340008E1340008E1340008E1340008BC
:1030A000E1340008E1340008E1340008E1340008AC
:1030B000D1690208E1340008E1340008E134000875
:1030C000E1340008E1340008E1340008E13400088C
:1030D000E134000801610208E13400082D620208B1
:1030E000E1340008E1340008E1340008E13400086C
:1030F00009640208E1340008E1340008E134000802
:10310000E1340008E1340008E1340008E13400084B
:10311000E134000835610208D9620208E134000890
:10312000E1340008E1340008E1340008E13400082B
:10313000000000000000000000000000000000008F
:10314000000000000000000000000000000000007F
:10315000000000000000000000000000000000006F
:10316000000000000000000000000000000000005F
:10317000000000000000000000000000000000004F
:10318000000000000000000000000000000000003F
:10319000000000000000000000000000000000002F
:1031A000000000000000000000000000000000001F
:1031B000000000000000000000000000000000000F
:1031C00000000000000000000000000000000000FF
:1031D00000000000000000000000000000000000EF
:1031E0005FF8E0F180B58EB000AF4FF440514FF082
:1031F000006001F08FFC03F039FA494B494A1A602C
:10320000494B484A1A60494B3B63494BFB62494B67
:10321000BB62FB6A7B6207E03A6B131D3B637B6A10
:10322000191D796212681A60BA6A7B6A9A42F3D8E9
:103230003B4B1B68404A934204D13B4B1B683F4ABF
:10324000934200D0FEE73E4B364A1A603D4B354A6A
:103250001A603D4B3B623D4BFB613B6ABB6104E046
:10326000BB691A1DBA6100221A60FA69BB699A42E9
:10327000F6D8334B1B68002B03D1324B1B68002B55
:1032800000D0FEE703F000FA3A463B1D114618460F
:1032900003F056F92E4A2F4BD31A9B10FB600023E4
:1032A000BB6007E02B4ABB6852F823309847BB68E5
:1032B0000133BB60FA68BB689A42F3DC264A274BAD
:1032C000D31A9B10FB600023BB6007E0234ABB6856
:1032D00052F823309847BB680133BB60FA68BB687B
:1032E0009A42F3DC7B683A68114618460AF0B4FF4C
:1032F00078631B4A1B4BD31A9B107B617B693B6134
:1033000008E03B69013B174A52F8233098473B6974
:10331000013B3B613B69002BF3DC786B03F0D6F893
:1033200000000020BABADECA00030020ACF5020893
:10333000000000200403002078563412325476989E
:10334000040300204028002004030020442800201B
:103350001035000810350008383500081035000811
:103360003C3500083835000880B500AFFFF73AFF5C
:1033700080B400AF00BEFEE71EF0040F0CBFEFF3F9
:103380000880EFF309807146524A104700BF80B5AC
:1033900088B002AF78603960174B5B6B7B61164B6E
:1033A0009B6B3B61144B9B6AFB60134B1B6B03F0E5
:1033B0000203002B10D0104BDB6A002B0CDA4BF60B
:1033C000AB61786803F0FCF90346002B04D00A4B8C
:1033D0004FF00042DA620CE0084803F0C3F83B68A3
:1033E00000933B697A69F968786803F053F900BE85
:1033F000FEE71837BD4680BD00ED00E0A8B9020821
:1034000080B400AF00BEFEE71EF0040F0CBFEFF368
:103410000880EFF3098071462F4A104700BF80B53E
:1034200088B002AF786039600A4B5B6B7B61094BF7
:103430009B6B3B61074B9B6AFB60074803F092F86C
:103440003B6800933B697A69F968786803F022F970
:1034500000BEFEE700ED00E0B8B902081EF0040F60
:103460000CBFEFF30880EFF3098071461B4A104749
:1034700000BF80B588B002AF786039600A4B5B6BE3
:103480007B61094B9B6B3B61074B9B6AFB60074869
:1034900003F068F83B6800933B697A69F9687868DB
:1034A00003F0F8F800BEFEE700ED00E0C4B9020842
:1034B00080B400AF00BEFEE780B400AF00BEFEE700
:1034C00080B400AF00BEFEE780B400AF00BFBD46D1
:1034D00080BC70478F3300081F3400087334000825
:0834E00080B400AF00BEFEE75E
:1034E800ACF502080000002004030020ACF5020837
:1034F8000000000000000000040300204428002011
:10350800000000000000000055830008C9E600081C
:1035180035440108A1490108A94D0108797201083B
:10352800A1850108898701086DA801088D4A02084C
:04353800D9E60008C8
:1035400080B584B002AF7860084611461A4603463B
:10355000FB700B46BB7013467B7011E03B691B7818
:10356000BA78F97800930023786800F06BFE3B6925
:1035700001333B617B78013B7B70FB780833FB7048
:103580007B78002BEAD100BF0837BD4680BD80B5EF
:1035900084B002AF7860084611461A460346FB70B5
:1035A0000B46BB7013467B707B78DB00D8B2BA78D1
:1035B000F9783B7C00930346786800F01FF80346D7
:1035C000002B17D012E07878BA78F9787B690093ED
:1035D00003467868FFF7B4FF7B787A6913447B6110
:1035E000BB780133BB703B7C013B3B743B7C002BC5
:1035F000E9D100E000BF0837BD4680BD90B484B07B
:1036000000AF7860084611461A460346FB700B4629
:10361000BB7013467B70BC783B7E2344DCB22346F0
:10362000013BDCB27B6893F839207B6893F83B3030
:10363000FA73BB73BB787B7323463B73BA7B7B7B8C
:103640009A420DD3FA7B3B7B9A4201D8012314E0C6
:103650007A7B3B7B9A4201D901230EE000230CE0E8
:10366000FA7B3B7B9A4207D87A7B3B7B9A4201D913
:10367000012302E0002300E00023002B01D10023FE
:1036800032E0FC787B782344DCB22346013BDCB299
:103690007B6893F838207B6893F83A30FA72BB72F3
:1036A000FB787B7223463B72BA7A7B7A9A420DD3BF
:1036B000FA7A3B7A9A4201D8012314E07A7A3B7A6B
:1036C0009A4201D901230EE000230CE0FA7A3B7AFA
:1036D0009A4207D87A7A3B7A9A4201D9012302E0CA
:1036E000002300E0002300BF18461037BD4690BC01
:1036F0007047000080B485B000AFF8607B600B4677
:10370000FB721346BB72FB7A062B11D801A252F84A
:1037100023F000BF31370008313700083137000887
:1037200031370008313700083137000831370008D9
:10373000012318461437BD4680BC704780B485B05D
:1037400000AF0346FB800023FB6007E07823FB60AB
:1037500000BFFB685A1EFA60002BFAD1FB885A1E84
:10376000FA80002BF2D100BF1437BD4680BC7047F1
:1037700080B483B000AF78600B46FB70FB787A684A
:1037800013447B607B681B7818460C37BD4680BCB1
:10379000704780B485B000AF78600B46FB70FB7853
:1037A0007A6813447B607B681B78FB817B680133FC
:1037B0007B60FB891B02FB817B681B789AB2FB89CB
:1037C0001344FB81FB8918461437BD4680BC704703
:1037D00080B582B000AF786000217868FFF7C8FF3D
:1037E000034618460837BD4680BD80B582B000AF9D
:1037F00078607868FFF7ECFF0346012B05D0022BB9
:1038000005D0002B05D1062304E0032302E00623A4
:1038100000E0032318460837BD4680BD80B582B05E
:1038200000AF786005217868FFF7A2FF03461846CD
:103830000837BD4680BD80B582B000AF78600621F4
:103840007868FFF7A6FF034618460837BD4680BDD7
:1038500080B582B000AF786008217868FFF799FFE3
:10386000034618460837BD4680BD80B582B000AF1C
:1038700078600A217868FFF77BFF0346184608370F
:10388000BD4680BD80B582B000AF78600B217868FE
:10389000FFF76EFF034618460837BD4680BD80B56A
:1038A00082B000AF78600C217868FFF761FF0346B3
:1038B0005BB218460837BD4680BD80B582B000AF08
:1038C00078600D217868FFF753FF03465BB2184616
:1038D0000837BD4680BD80B582B000AF78600E214C
:1038E0007868FFF745FF03465BB218460837BD46C8
:1038F00080BD80B582B000AF78600F217868FFF797
:1039000037FF03465BB218460837BD4680BD80B519
:1039100082B000AF786010217868FFF729FF034676
:103920005BB218460837BD4680BD80B582B000AF97
:10393000786039607868FFF758FF03461A463B689D
:10394000134418460837BD4680BD80B584B000AF2B
:10395000786039607B689B681846FFF739FF03463B
:10396000002B01D0022B1BD13B681A787B68DA77D9
:103970003B685A787B6883F820203B6803331B78C8
:103980005AB27B681A773B6804331B785AB27B685B
:103990005A773B6805331B785AB27B689A7734E0D4
:1039A0003B681B78FB7397F90F3003F00F035AB293
:1039B0007B689A777B6893F91E30DBB2023BDBB2FF
:1039C0005AB27B689A77FB7B1B09FB7397F90F2030
:1039D0007B685A773B685B78FB73FB7B03F00F03D4
:1039E000DAB27B6883F82020FB7B1B09FB737B68C2
:1039F000FA7BDA773B689B78FB73FB7B1B09FB73D5
:103A000097F90F207B681A7700BF00BF1037BD46BB
:103A100080BD80B483B000AF78607B6800221A77E5
:103A20007B680022DA777B68002283F820207B689D
:103A300000225A777B6800229A7700BF0C37BD4678
:103A400080BC704780B586B000AF78600B46FB70D5
:103A50007B689B687B617B689B681846FFF7B8FEB4
:103A600003463B747B689B681846FFF7BEFE03461F
:103A7000FB73FF237B743B7C012B01D10F237B74F1
:103A80007B689B681846FFF7F0FE0346FB747B6873
:103A90009B681846FFF7F6FE0346BB737B689B687E
:103AA0001846FFF7D5FE0346BB81FB78602B09D98A
:103AB000BB89002B06D0BB897A6913447B616123E3
:103AC000FB7416E07B689B681846FFF7B4FE03465C
:103AD000BB81FB78402B09D9BB89002B06D0BB8961
:103AE0007A6913447B614123FB7402E07B691133E3
:103AF0007B61FA78BB7B9A4204D97868FFF789FF2B
:103B0000002332E0FB7CBB74BA7CBB7B9A4228D892
:103B10007B691B78FF2B03D17B6901337B6117E045
:103B2000BA7CFB789A4205D179697868FFF70DFF76
:103B30007B691AE07B6902331A787B7C1340DBB225
:103B40001A467B6913447B61FB7B7A6913447B6172
:103B5000BA7CBB7B9A4203D0BB7C0133BB74D7E7F2
:103B600000BF7868FFF755FF002318461837BD4699
:103B700080BD80B588B002AF7860084611461A460D
:103B80000346FB700B46BB7013467B707B7819466F
:103B90007868FFF757FFF860FB68002B01D100231E
:103BA0006DE07B689B68F9681846FFF7BEFE786198
:103BB0007B68DB7FFB727B6893F82030BB727B688D
:103BC00093F91D30DAB2FB781344FB707B6893F9EC
:103BD0001E30DBB2BA78D31ABB70BB78013BBB7026
:103BE000BA78BB7AD31ADBB20133DAB2F87AF97851
:103BF000BB7A009303467868FFF700FD0346002B6D
:103C000003D17B6893F91C3039E0FB7A0733FB72F0
:103C1000FB7ADB08FB72BB783B743A7CBB7AD31A25
:103C20003B743B7C01333B740023BB7420E0FB7886
:103C30007B740023FB7411E07B691B783A7C797CF0
:103C400000930023786800F0FDFA7B6901337B6103
:103C50007B7C08337B74FB7C0133FB74FA7CFB7A3E
:103C60009A42E9D33B7C01333B74BB7C0133BB7488
:103C7000BA7CBB7A9A42DAD37B6893F91C30184637
:103C80001837BD4680BD80B582B000AF7860084669
:103C900011461A460346FB700B46BB7013467B70F9
:103CA0007B685B6A7868984703461A46BB7813447A
:103CB000BB707B78BA78F9787868FFF75AFF0346CB
:103CC00018460837BD4680BD80B586B000AFF860A5
:103CD0007B600B46FB721346BB720023FB75FB68CF
:103CE0005B6AF868984703461A46BB7A1344BB726E
:103CF00015E07B6893F90030DBB2BA7AF97AF8689C
:103D0000FFF737FF0346BB75BA7DFB7A1344FB729E
:103D1000BA7DFB7D1344FB757B6801337B607B6858
:103D200093F90030002BE4D1FB7D18461837BD46CF
:103D300080BD80B584B000AF78607B689B68002B45
:103D40006BD07B6893F82830002B14D17B689B687C
:103D50001846FFF763FD03465AB27B6883F82920B3
:103D60007B689B681846FFF79AFD03461A467B68F6
:103D700083F82A202DE07B6893F82830012B14D19A
:103D80007B689B681846FFF7B4FD03461A467B68BC
:103D900083F829207B689B681846FFF7B8FD034627
:103DA0001A467B6883F82A2013E07B689B681846D4
:103DB000FFF783FD03461A467B6883F829207B685A
:103DC0009B681846FFF787FD03461A467B6883F811
:103DD0002A207B6893F929301AB27B6893F92A303C
:103DE0001BB2D31A1BB2FB817B6893F82B30402B9C
:103DF0000DD0FB89DBB2FB817B6893F82B309BB243
:103E0000FA8902FB03F3FB81FB899B09FB81FB8998
:103E1000DAB27B6883F82C2000E000BF1037BD4683
:103E200080BD80B483B000AF7860002318460C37A3
:103E3000BD4680BC7047000080B483B000AF78609E
:103E40007B68034A5A6200BF0C37BD4680BC70478E
:103E5000233E000880B582B000AF786039607B688F
:103E60009B683A689A4208D07B683A689A6078689A
:103E7000FFF75FFF7868FFF7DFFF00BF0837BD4639
:103E800080BD90B585B000AFF860B9603B60134667
:103E9000FB71BB681C68FA793B68B968F868A04791
:103EA000034618461437BD4690BD80B584B000AFB8
:103EB000786039607B685B6B0220984700230A2298
:103EC00039687868FFF7DDFF0346FB737B685B6B3F
:103ED000032098477B685B6B00209847FB7B184664
:103EE0001037BD4680BD80B582B000AF78603960C4
:103EF0007B685B6B022098477B685B6B012098476F
:103F00000023142239687868FFF7BBFF7B683833D9
:103F1000172239687868FFF7B4FF7B685B6B002075
:103F2000984700BF0837BD4680BD80B584B000AF5C
:103F3000786039607B685B6B022098477B685B6BBD
:103F4000012098470023152239687868FFF799FF08
:103F50000346FB73FB7B002B06D07B6838331722AC
:103F600039687868FFF78DFF7B685B6B00209847A6
:103F7000FB7B18461037BD4680BD80B584B000AFCE
:103F8000F860B9601346FB71FB1D0F22B968F86831
:103F9000FFF777FF034618461037BD4680BD80B552
:103FA00086B000AFF860B96011461A460B46FB7147
:103FB0001346BB71FB682D337B617B69FA791A70FC
:103FC0007B69BA795A707B693222B968F868FFF761
:103FD00058FF00BF1837BD4680BD80B586B000AF22
:103FE000F860B96011461A460B46FB711346BB7167
:103FF000FB682D337B617B69FA791A707B69BA792A
:104000005A707B6997F82020DA707B6997F8242032
:104010009A707B693B22B968F868FFF732FF00BFEE
:104020001837BD4680BD80B584B000AF7860396078
:1040300007F10F03462239687868FFF722FFFB7B00
:1040400018461037BD4680BD80B584B000AF78609B
:10405000396007F10F03472239687868FFF711FFCD
:10406000FB7B18461037BD4680BD80B582B000AFDF
:10407000786039600023482239687868FFF701FFCB
:10408000034618460837BD4680BD80B582B000AFF4
:1040900078607B685B6819467868FFF7C4FF034661
:1040A0001A467B681A707B685B6819467868FFF768
:1040B000CBFF03461A467B685A707B685B681946DB
:1040C0007868FFF7D2FF03461A467B68DA747B688C
:1040D00059687B68383317227868FFF7D2FE00BF33
:1040E0000837BD4680BD000080B582B000AF786063
:1040F0007B6800229A607B680022DA607B6800227D
:104100005A747B6801221A747B6822229A747B6835
:1041100000229A610121786800F0B1F87868FFF711
:104120008BFE7B68012283F828207B68002283F8BD
:1041300029207B68002283F82A207B68402283F8AC
:104140002B207B68002283F82C207B68024A5A636C
:1041500000BF0837BD4680BD174A000880B582B051
:1041600000AF78607B685B6819467868FFF79DFE52
:104170000346002B01D1002303E07868FFF785FF99
:10418000012318460837BD4680BD80B582B000AF18
:10419000786039607868FFF7A7FF7B683A685A60F3
:1041A0007868FFF7DBFF034618460837BD4680BD39
:1041B00080B582B000AF78607B685B68194678682C
:1041C000FFF791FE00BF0837BD4680BD80B582B0C5
:1041D00000AF78607B689B69002B03D07B689B698C
:1041E000786898477B685B6819467868FFF79DFE9A
:1041F000034618460837BD4680BD80B582B000AF83
:1042000078600B46FB707B685B68FA7819467868C3
:10421000FFF7B3FE034618460837BD4680BD80B59C
:1042200082B000AF78600B46FB701346BB707B68B2
:104230005968BB78FA787868FFF7B1FE00BF083795
:10424000BD4680BD80B584B002AF78600846114697
:104250001A460346FB700B46BB7013467B707B68A7
:104260005968B878FA783B7C01937B7800930346D1
:104270007868FFF7B2FE00BF0837BD4680BD80B446
:1042800083B000AF78600B46FB707B68FA7883F8E8
:10429000312000BF0C37BD4680BC704780B483B06E
:1042A00000AF78607B6800229A707B681A787B6820
:1042B000DA707B68DB78013BDAB27B68DA707B68A6
:1042C00000221A7100BF0C37BD4680BC704790B405
:1042D00082B000AF78607B689A787B681B78134463
:1042E000DAB27B689A707B689A787B685B789A42CE
:1042F00001D3002318E07B681B790133DAB27B68B5
:104300001A717B68DC787B681B782344DCB27B689D
:104310005B789C4204D37B685C782346013BDCB22B
:104320007B682246DA70012318460837BD4690BCE8
:10433000704780B485B000AF78600B46FB701346C1
:10434000BB707B68DB78FA789A4294BF0123002324
:10435000DBB2FB737B689B78BA789A422CBF01234F
:104360000023DBB2BB73FA78BB789A428CBF01237F
:104370000023DBB27B73FB7B3B73FA7BBB7B13407D
:10438000FB73BA7B7B7B1340BB737A7B3B7B134015
:104390007B73FA7BBB7B1343FB73FA7B7B7B1343FF
:1043A000FB73FB7B03F00103DBB218461437BD46F9
:1043B00080BC704780B483B000AF786039603B68E0
:1043C00000221A707B689A783B685A707B685A7929
:1043D0003B689A703B689B78013BDAB23B689A7005
:1043E0007B68DA783B68DA7000BF0C37BD4680BC6A
:1043F0007047000080B584B000AF786039603B68DA
:104400005B78FB73FB7BBB733B68DB78032B13D8B8
:1044100001A252F823F000BF3944000829440008E3
:104420003944000831440008BB7B0833BB7303E008
:10443000FB7B083BFB7300BFBA7BFB7B19467868AC
:10444000FFF777FF034618461037BD4680BD00BF13
:1044500080B485B000AF78607B689B68FB60FB68C8
:10446000BB607B685B795B001A46BB681344BB602A
:10447000FB685A1CFA6000221A70FA68BB689A42FC
:10448000F6D100BF1437BD4680BC704790B484B0ED
:1044900000AF7860084611461A460346FB700B468B
:1044A000BB7013467B707B689B68FB607B689B7866
:1044B000BA78D31ABB70BB78072B09D97B685B79B4
:1044C0001A46FB681344FB60BB7803F00703BB701C
:1044D0007B685B79FB72FB7ADB08FB72FB7ABA784C
:1044E00002FB03F3FB72FB7AFA681344FB6080243F
:1044F0002246FB7803F0070342FA03F3DCB2FB78B1
:10450000DB08FB70FB78FA681344FB607B78002BB8
:1045100006D0FB681B782343DAB2FB681A7007E009
:10452000E343DCB2FB681B782340DAB2FB681A7005
:1045300000BF1037BD4690BC704780B582B000AF59
:10454000786039603B685A787B689B789A4215D3CB
:104550003B685A787B68DB789A4211D83B681A78B6
:104560007B685B799A420DD23B6819783B685A7830
:104570003B681B797868FFF789FF04E000BF02E021
:1045800000BF00E000BF0837BD4680BD90B585B0D4
:1045900000AF786039603B689C780023FB73002390
:1045A000BB733B68DB78032B1AD801A252F823F0C7
:1045B000C1450008C9450008D1450008D945000893
:1045C000FB7B0133FB730BE0BB7B0133BB7307E069
:1045D000FB7B013BFB7303E0BB7B013BBB7300BF79
:1045E00063B2002B03DA39687868FFF7A6FF3B68EF
:1045F0001A78FB7B1344DAB23B681A703B685A782E
:10460000BB7B1344DAB23B685A706300DCB2002C07
:10461000E6D100BF1437BD4690BD00BF80B586B05F
:1046200000AFF860B9603B601346FB71BB685B6824
:104630007B61FB790A3B3E2B00F2BA8001A252F863
:1046400023F000BFB1470008B1470008B147000898
:10465000B1470008B1470008B1470008B14700085A
:10466000B1470008B1470008B14700086347000898
:1046700073470008B14700088D470008B14700089C
:10468000B1470008B1470008B1470008B14700082A
:10469000B1470008B1470008B1470008B14700081A
:1046A000B1470008B1470008B1470008B14700080A
:1046B000B1470008B1470008B1470008B1470008FA
:1046C000B1470008B1470008B1470008B1470008EA
:1046D000B1470008B1470008B1470008B1470008DA
:1046E000B147000859470008B1470008B147000822
:1046F000B1470008B1470008B1470008B1470008BA
:10470000B1470008B147000841470008B147000819
:10471000B1470008B1470008B1470008B147000899
:10472000B1470008B1470008B1470008B147000889
:10473000B147000897470008A1470008AB470008A9
:1047400039687869FFF756FE0346002B2FD0396889
:104750007869FFF71BFF2AE039687869FFF7EDFEFB
:1047600026E07869FFF774FE7B691846FFF796FD2F
:104770001EE07B691846FFF7AAFD0346002B01D116
:10478000002316E07869FFF763FE11E03968786965
:10479000FFF710FE0CE07B695A793B681A7007E05E
:1047A0007B695A783B681A7002E0012301E000BF80
:1047B000012318461837BD4680BD00BF80B586B0BE
:1047C00002AF7860084611461A460346FB700B4656
:1047D000BB7013467B70FF23FB730DE0BA78F9784A
:1047E000FB7B009300237868FFF72CFD7B78083B68
:1047F0007B70FB780833FB707B78072BEED87B78D7
:10480000002B15D07B7883F007037B707B78013316
:104810007B70FA7B7B7803F0070302FA03F3FB73E8
:10482000BA78F978FB7B009300237868FFF70AFDDC
:1048300000BF1037BD4680BD80B586B002AF78603E
:10484000084611461A460346FB700B46BB701346DA
:104850007B70FF23FB730DE0BA78F978FB7B009344
:1048600001237868FFF7EEFC7B78083B7B70BB7810
:104870000833BB707B78072BEED87B78002B15D0E4
:104880007B7883F007037B707B7801337B70FA7B46
:104890007B7803F0070302FA03F3FB73BA78F97825
:1048A000FB7B009301237868FFF7CCFC00BF103737
:1048B000BD4680BD80B584B002AF78600846114621
:1048C0001A460346FB700B46BB7013467B70787824
:1048D000BA78F9780123009303467868FEF78EFED4
:1048E0000346002B06D07B78BA78F9787868FFF712
:1048F00065FF00E000BF0837BD4680BD80B586B0CB
:1049000002AF7860084611461A460346FB700B4614
:10491000BB7013467B70FB78FB737878BA78F978B4
:104920003B7E009303467868FEF768FE0346002B43
:1049300026D07B78BA78F9787868FFF73FFF3B7E1E
:10494000BA78F9787868FFF777FFFA787B781344BC
:10495000FB70FB78013BFB703B7EBA78F978786896
:10496000FFF76AFFBA783B7E1344BB70BB78013B0C
:10497000BB707B78BA78F97B7868FFF71FFF00E09F
:1049800000BF1037BD4680BD80B582B000AF7860F3
:10499000084611461A460346FB700B46BB70134689
:1049A0007B707B78BA78F9787868FFF707FFBB7877
:1049B0000133BB703B7C013B3B743B7C002BF0D153
:1049C00000BF0837BD4680BD80B584B002AF7860B7
:1049D000084611461A460346FB700B46BB70134649
:1049E0007B707878BA78F9783B7C009303467868D6
:1049F000FEF704FE0346002B09D07878BA78F978E0
:104A00003B7C009303467868FFF7BEFF00E000BFE1
:104A10000837BD4680BD80B483B000AF0346FB714C
:104A200000BF0C37BD4680BC7047000080B483B027
:104A300000AF7860054A7B6843F0BF6343F40033FE
:104A4000D36000BF0C37BD4680BC704700ED00E06E
:104A500080B487B000AF786000237B6100233B61A6
:104A60000F23FB607B68DB78002B3AD0274BDB6899
:104A7000DB431B0A03F007037B617B69C3F104037B
:104A80003B61FA687B6922FA03F3FB607B685B7821
:104A90001A463B6902FA03F37B617B689B781A46EE
:104AA000FB6813407A6913437B617B691B017B615F
:104AB000174A7B681B787969C9B213440A4683F8A0
:104AC00000237B681B7803F01F0311497A68127872
:104AD0005209D2B21046012202FA03F341F8203003
:104AE0000FE07B681B7803F01F0309497A6812788E
:104AF0005209D2B2104601229A4000F1200341F837
:104B0000232000BF1C37BD4680BC704700ED00E08D
:104B100000E100E080B483B000AF786039603B68AA
:104B200023F0604323F07F0304497A6813438B60CA
:104B300000BF0C37BD4680BC704700BF00ED00E0F1
:104B400080B582B000AF78607B68174A93420AD183
:104B500001214FF4007000F0BDFE00214FF4007001
:104B600000F0B8FE1CE07B68104A93420AD1012194
:104B70004FF4806000F0AEFE00214FF4806000F042
:104B8000A9FE0DE07B680A4A934209D101214FF446
:104B9000004000F09FFE00214FF4004000F09AFE1C
:104BA00000BF0837BD4680BD0024014000280140F9
:104BB000003C014080B485B000AF786039600023CC
:104BC000FB600023FB727B685B68FB60FB6823F47F
:104BD000702323F48073FB603B681A683B681B7981
:104BE0001B021343FA681343FB607B68FA685A6040
:104BF0007B689B68FB60FA68164B1340FB603B6860
:104C0000DA683B689B681A433B685B795B00134337
:104C1000FA681343FB607B68FA689A607B68DB6A1A
:104C2000FB60FB6823F47003FB603B681B7C013B6B
:104C3000DAB2FB7A1343FB72FB7A1B05FA68134363
:104C4000FB607B68FA68DA6200BF1437BD4680BC3F
:104C5000704700BFFDF7F1FF80B483B000AF78600C
:104C60000B46FB70FB78002B06D07B689B6843F0FB
:104C700001027B689A6005E07B689B6823F0010273
:104C80007B689A6000BF0C37BD4680BC704780B41B
:104C900083B000AF78600B46FB70FB78002B06D02A
:104CA0007B689B6843F480727B689A6005E07B6850
:104CB0009B6823F480727B689A6000BF0C37BD4606
:104CC00080BC704780B483B000AF78607B689B681D
:104CD00043F008027B689A6000BF0C37BD4680BC79
:104CE000704780B485B000AF78600023FB737B68A9
:104CF0009B6803F00803002B02D00123FB7301E043
:104D00000023FB73FB7B18461437BD4680BC7047FD
:104D100080B483B000AF78607B689B6843F0040286
:104D20007B689A6000BF0C37BD4680BC704780B47A
:104D300085B000AF78600023FB737B689B6803F04D
:104D40000403002B02D00123FB7301E00023FB735B
:104D5000FB7B18461437BD4680BC704780B483B0D7
:104D600000AF78600B46FB70FB78002B06D07B68A9
:104D70009B6843F4A0027B689A6005E07B689B68AF
:104D800023F4A0027B689A6000BF0C37BD4680BC4C
:104D9000704780B485B000AF7860084611461A4667
:104DA0000346FB700B46BB7013467B700023FB6011
:104DB0000023BB60FB78092B23D97B68DB68FB6091
:104DC000FB78A3F10A0213465B001344072202FAA0
:104DD00003F3BB60BB68DB43FA681340FB60797880
:104DE000FB78A3F10A0213465B00134401FA03F3B4
:104DF000BB60FA68BB681343FB607B68FA68DA60E3
:104E00001EE07B681B69FB60FA7813465B00134465
:104E1000072202FA03F3BB60BB68DB43FA68134066
:104E2000FB607978FA7813465B00134401FA03F3C8
:104E3000BB60FA68BB681343FB607B68FA681A6161
:104E4000BB78062B21D87B685B6BFB60BB785A1E56
:104E500013469B0013441F2202FA03F3BB60BB6896
:104E6000DB43FA681340FB60F978BB785A1E13469F
:104E70009B00134401FA03F3BB60FA68BB68134359
:104E8000FB607B68FA685A6347E0BB780C2B21D83B
:104E90007B681B6BFB60BB78DA1F13469B001344D7
:104EA0001F2202FA03F3BB60BB68DB43FA681340BE
:104EB000FB60F978BB78DA1F13469B00134401FAB4
:104EC00003F3BB60FA68BB681343FB607B68FA6856
:104ED0001A6322E07B68DB6AFB60BB78A3F10D02FA
:104EE00013469B0013441F2202FA03F3BB60BB6806
:104EF000DB43FA681340FB60F978BB78A3F10D023D
:104F000013469B00134401FA03F3BB60FA68BB68C5
:104F10001343FB607B68FA68DA6200BF1437BD4652
:104F200080BC704780B483B000AF78607B681A683B
:104F30004FF6FE7313407A6813607B6800221A6094
:104F40007B6800225A607B6800229A607B6800229E
:104F5000DA607B68434A934206D1434B5B68424A1E
:104F600043F00F03536077E07B68404A934206D1D9
:104F70003D4B5B683C4A43F0F00353606CE07B6858
:104F80003B4A934206D1384B5B68374A43F470631F
:104F9000536061E07B68374A934206D1324B5B68CD
:104FA000314A43F47043536056E07B68324A93427F
:104FB00006D12D4B5B682C4A43F4702353604BE0C1
:104FC0007B682E4A934206D1274B5B68264A43F4FE
:104FD0007003536040E07B68294A934206D1224B1C
:104FE0005B68214A43F07063536035E07B68254A73
:104FF000934206D1244B5B68234A43F00F0353606E
:105000002AE07B68214A934206D11F4B5B681E4A07
:1050100043F0F00353601FE07B681D4A934206D1C2
:10502000194B5B68184A43F47063536014E07B6863
:10503000184A934206D1144B5B68134A43F47043F9
:10504000536009E07B68144A934205D10E4B5B68BC
:105050000D4A43F47023536000BF0C37BD4680BC3B
:10506000704700BF08000240000002401C000240E0
:105070003000024044000240580002406C000240F0
:105080008000024008040240000402401C04024068
:1050900030040240440402405804024080B485B009
:1050A00000AF786039600023FB607B681B68FB60A1
:1050B000FB6823F4FF4323F07003FB603B689A68AE
:1050C0003B681B6A1A433B681B691A433B685B6970
:1050D0001A433B689B691A433B68DB691A433B6888
:1050E0005B6A1A433B689B6A1343FA681343FB608D
:1050F0007B68FA681A603B68DA687B685A603B68CC
:105100001A687B689A603B685A687B68DA6000BFFF
:105110001437BD4680BC704780B483B000AF786060
:105120000B46FB70FB78002B06D07B681B6843F0B6
:1051300001027B681A6006E07B681A684FF6FE730E
:1051400013407A68136000BF0C37BD4680BC7047BF
:1051500080B483B000AF78607B685B689BB2184610
:105160000C37BD4680BC704780B483B000AF786018
:105170007B6803F08053002B03D0064A7B685360A2
:1051800002E0054A7B68536000BF0C37BD4680BC17
:10519000704700BF000402400000024080B400AF2E
:1051A000044B054A5A60034B044A5A6000BFBD468F
:1051B00080BC70470020024023016745AB89EFCDDA
:1051C00080B400AF044B1B69034A43F080031361B2
:1051D00000BFBD4680BC70470020024080B584B04F
:1051E00000AF78600423FB734FF4302000F080F8A8
:1051F0000346FB73FB7B042B1BD1104B1B690F4A2F
:1052000043F0020313610D4A7B6853610B4B1B692A
:105210000A4A43F0400313614FF4302000F068F86D
:105220000346FB73054B1A69044941F6FD731340AD
:105230000B61FB7B18461037BD4680BD0020024045
:1052400080B584B000AF78600B467B800423FB738D
:105250004FF4005000F04CF80346FB73FB7B042B2B
:1052600015D10D4B1B690C4A43F0010313617B6898
:105270007A881A804FF4005000F03AF80346FB7326
:10528000054B1A69044941F6FE7313400B61FB7B21
:1052900018461037BD4680BD0020024080B483B060
:1052A00000AF0423FB71114BDB6803F00103012BFA
:1052B00002D10123FB7113E00C4BDB6803F0040304
:1052C000002B02D00223FB710AE0084BDB6803F0DD
:1052D0001003002B02D00323FB7101E00423FB71B8
:1052E000FB7918460C37BD4680BC70470020024051
:1052F00080B584B000AF78600423FB73FFF7CEFF66
:105300000346FB7306E0FFF7C9FF0346FB737B68A8
:10531000013B7B60FB7B012B02D17B68002BF2D130
:105320007B68002B01D10523FB73FB7B18461037EC
:10533000BD4680BD80B489B000AF7860396000237D
:10534000FB6100233B610023BB610023FB60002362
:105350007B610023BB603B68DB7803F00F03FB61DC
:105360003B68DB7803F01003002B05D03B689B788B
:105370001A46FB691343FB613B681B88DBB2002BB9
:1053800044D07B681B687B610023BB6138E001224D
:10539000BB6902FA03F3FB603B681B881A46FB6893
:1053A00013403B613A69FB689A4226D1BB699B0076
:1053B000FB600F22FB6802FA03F3BB60BB68DB43B0
:1053C0007A6913407B61FA69FB6802FA03F37A6930
:1053D00013437B613B68DB78282B05D10122BB6935
:1053E0009A407B685A6108E03B68DB78482B04D11F
:1053F0000122BB699A407B681A61BB690133BB61BA
:10540000BB69072BC3D97B687A691A603B681B8824
:10541000FF2B46D97B685B687B610023BB613AE068
:10542000BB690833012202FA03F3FB603B681B8867
:105430001A46FB6813403B613A69FB689A4227D1E0
:10544000BB699B00FB600F22FB6802FA03F3BB60A1
:10545000BB68DB437A6913407B61FA69FB6802FA37
:1054600003F37A6913437B613B68DB78282B05D112
:10547000BB69083301229A407B685A613B68DB783C
:10548000482B05D1BB69083301229A407B681A6119
:10549000BB690133BB61BB69072BC1D97B687A69E2
:1054A0005A6000BF2437BD4680BC704780B485B0C9
:1054B00000AF78600B467B800023FB737B689A68A3
:1054C0007B881340002B02D00123FB7301E00023F3
:1054D000FB73FB7B18461437BD4680BC704780B415
:1054E00083B000AF78600B467B807A887B681A6156
:1054F00000BF0C37BD4680BC704780B483B000AF9E
:1055000078600B467B807A887B685A6100BF0C37D5
:10551000BD4680BC7047000080B487B000AF7860A3
:105520000B46FB7000233B610023FB6000237B6183
:105530000023BB607B68002B03DA2E4BDB697B61A9
:1055400002E02C4B5B687B617B681B0C03F00F0354
:10555000BB607B689BB23B617B6803F44013B3F58F
:10556000401F0AD17B6923F070637B61214B5B682C
:10557000204A23F07063536021E07B6803F48013BA
:10558000002B0ED00322BB6802FA03F3FB60FB681A
:10559000DB437A6913407B617B6943F070637B6115
:1055A0000DE07B685B0D1B013A6902FA03F3DB43F4
:1055B0007A6913407B617B6943F070637B61FB78A0
:1055C000002B08D07B685B0D1B013A6902FA03F3DC
:1055D0007A6913437B617B68002B03DA054A7B6998
:1055E000D36102E0034A7B69536000BF1C37BD46AC
:1055F00080BC70470000014080B483B000AF034618
:10560000FB80044AFB88136000BF0C37BD4680BC9A
:10561000704700BF0030004080B483B000AF034645
:10562000FB71044AFB79536000BF0C37BD4680BC58
:10563000704700BF0030004080B483B000AF034625
:10564000FB80044AFB88936000BF0C37BD4680BCDA
:10565000704700BF0030004080B400AF034B4AF6F3
:10566000AA221A6000BFBD4680BC704700300040CF
:1056700080B400AF034B4CF6CC421A6000BFBD466D
:1056800080BC70470030004080B485B000AF7860C7
:105690000023FB60094B5B68FB60FB6823F440431D
:1056A000FB60FA687B681343FB60044AFB68536045
:1056B00000BF1437BD4680BC704700BF00100240D9
:1056C00080B487B000AF786000237B6100233B612A
:1056D0000023FB600023BB604C4B5B6803F00C03B2
:1056E0007B617B69042B07D0082B09D0002B33D1B9
:1056F0007B68474A1A6033E07B68454A1A602FE0AE
:10570000424B5B6803F470133B61404B5B6803F4EE
:105710008033FB603B699B0C02333B61FB68002BD1
:1057200006D13B693B4A02FB03F27B681A6017E033
:10573000364B5B6803F40033002B06D03B69354AD7
:1057400002FB03F27B681A600AE03B69304A02FB05
:1057500003F27B681A6003E07B682D4A1A6000BF81
:105760002A4B5B6803F0F0037B617B691B097B615B
:10577000294A7B6913441B78DBB2BB607B681A68DB
:10578000BB68DA407B685A60204B5B6803F4E063D7
:105790007B617B691B0A7B611F4A7B6913441B7811
:1057A000DBB2BB607B685A68BB68DA407B689A6092
:1057B000164B5B6803F460537B617B69DB0A7B619A
:1057C000154A7B6913441B78DBB2BB607B685A685F
:1057D000BB68DA407B68DA600C4B5B6803F44043DB
:1057E0007B617B699B0B7B610C4A7B6913441B7853
:1057F000DBB2BB607B68DA68BB68B2FBF3F27B6844
:105800001A6100BF1C37BD4680BC704700100240C3
:1058100000127A0000093D0004000020140000205E
:1058200080B483B000AF78600B46FB70FB78002B30
:1058300006D0094B5A6908497B6813434B6106E05F
:10584000054B5A697B68DB43034913404B6100BF3A
:105850000C37BD4680BC70470010024080B483B056
:1058600000AF78600B46FB70FB78002B06D0094B2D
:105870009A6908497B6813438B6106E0054B9A6976
:105880007B68DB43034913408B6100BF0C37BD4687
:1058900080BC70470010024080B483B000AF7860D5
:1058A0000B46FB70FB78002B06D0094BDA690849E0
:1058B0007B681343CB6106E0054BDA697B68DB4309
:1058C00003491340CB6100BF0C37BD4680BC704715
:1058D0000010024080B483B000AF78600B46FB70CC
:1058E000FB78002B06D0094BDA6808497B68134324
:1058F000CB6006E0054BDA687B68DB430349134065
:10590000CB6000BF0C37BD4680BC70470010024022
:1059100080B483B000AF78600B46FB70FB78002B3F
:1059200006D0094B1A6908497B6813430B6106E0EE
:10593000054B1A697B68DB43034913400B6100BFC9
:105940000C37BD4680BC70470010024080B485B063
:1059500000AF786039600023FB817B681B88FB8186
:10596000FB8903F44153FB813B681A883B685B88E1
:1059700013439AB23B689B8813439AB23B68DB8817
:1059800013439AB23B681B8913439AB23B685B8905
:1059900013439AB23B689B8913439AB23B68DB89F5
:1059A00013439AB2FB891343FB817B68FA891A80FF
:1059B0007B689B8B9BB223F400639AB27B689A83CB
:1059C0003B681A8A7B681A8200BF1437BD4680BCC8
:1059D000704780B483B000AF78600B46FB70FB78F3
:1059E000002B08D07B681B889BB243F040039AB21F
:1059F0007B681A8007E07B681B889BB223F040031A
:105A00009AB27B681A8000BF0C37BD4680BC7047D5
:105A100080B483B000AF78600B467B807B687A8867
:105A20009A8100BF0C37BD4680BC704780B483B0FC
:105A300000AF78607B689B899BB218460C37BD46E7
:105A400080BC704780B485B000AF78600B467B8027
:105A50000023FB737B681B899AB27B8813409BB23F
:105A6000002B02D00123FB7301E00023FB73FB7BBF
:105A700018461437BD4680BC7047000080B582B020
:105A800000AF78607B68784A93420AD101214FF4D5
:105A90000060FFF71FFF00214FF40060FFF71AFFBF
:105AA000DEE07B68B3F1804F08D101210120FFF7D0
:105AB0002FFF00210120FFF72BFFD1E07B686B4A0D
:105AC000934208D101210220FFF722FF002102208A
:105AD000FFF71EFFC4E07B68654A934208D10121AD
:105AE0000420FFF715FF00210420FFF711FFB7E0A6
:105AF0007B68604A934208D101210820FFF708FF24
:105B000000210820FFF704FFAAE07B685A4A93426D
:105B100008D101211020FFF7FBFE00211020FFF724
:105B2000F7FE9DE07B68554A934208D10121202071
:105B3000FFF7EEFE00212020FFF7EAFE90E07B68F1
:105B40004F4A93420AD101214FF40050FFF7C2FEA1
:105B500000214FF40050FFF7BDFE81E07B68494A09
:105B600093420AD101214FF40020FFF7B3FE002138
:105B70004FF40020FFF7AEFE72E07B68424A93428A
:105B80000AD101214FF48010FFF7A4FE00214FF449
:105B90008010FFF79FFE63E07B683C4A93420AD186
:105BA00001214FF40010FFF795FE00214FF4001083
:105BB000FFF790FE54E07B68354A934208D10121FB
:105BC0004020FFF7A5FE00214020FFF7A1FE47E09F
:105BD0007B68304A934208D101218020FFF798FE6C
:105BE00000218020FFF794FE3AE07B682A4A934226
:105BF0000AD101214FF48070FFF78AFE00214FF493
:105C00008070FFF785FE2BE07B68244A93420AD11F
:105C100001214FF48030FFF75DFE00214FF480300A
:105C2000FFF758FE1CE07B681D4A93420AD1012110
:105C30004FF40030FFF74EFE00214FF40030FFF725
:105C400049FE0DE07B68174A934209D101214FF4C8
:105C50008020FFF73FFE00214FF48020FFF73AFE3F
:105C600000BF0837BD4680BD002C01400004004045
:105C700000080040000C00400010004000140040EC
:105C800000340140004C01400050014000540140EC
:105C900000180040001C004000200040004001406F
:105CA000004401400048014080B485B000AF7860F6
:105CB00039600023FB817B681B88FB817B682E4A4F
:105CC000934213D07B682D4A93420FD07B68B3F187
:105CD000804F0BD07B682A4A934207D07B68294AC1
:105CE000934203D07B68284A934208D1FB8923F072
:105CF0007003FB813B685A88FB891343FB817B68F7
:105D0000224A93420CD07B68214A934208D0FB89F7
:105D100023F44073FB813B68DA88FB891343FB81E2
:105D20007B68FA891A803B689A887B689A853B6809
:105D30001A887B681A857B680F4A93420FD07B686C
:105D40000E4A93420BD07B68124A934207D07B687D
:105D5000114A934203D07B68104A934204D13B68B6
:105D60001B7A9AB27B681A867B6801229A8200BFEE
:105D70001437BD4680BC7047002C01400034014000
:105D80000004004000080040000C004000100040EB
:105D90000014004000400140004401400048014020
:105DA00080B483B000AF78600B46FB70FB78002BAB
:105DB00008D07B681B889BB243F001039AB27B68D2
:105DC0001A8007E07B681B889BB223F001039AB21C
:105DD0007B681A8000BF0C37BD4680BC704780B41A
:105DE00083B000AF78600B467B8013467B707B7876
:105DF000002B08D07B689B899AB27B8813439AB2A8
:105E00007B689A8109E07B689B899AB27B88DB4337
:105E10009BB213409AB27B689A8100BF0C37BD4693
:105E200080BC704780B483B000AF78607B681B890A
:105E30009BB223F007039AB27B681A8100BF0C372C
:105E4000BD4680BC704780B483B000AF78600B461D
:105E50007B8013463B807B687A881A857B683A880A
:105E60009A8200BF0C37BD4680BC704780B483B0B7
:105E700000AF78600B46FB70FB78002B08D07B6886
:105E80001B889BB243F080039AB27B681A8007E0BC
:105E90007B681B889BB223F080039AB27B681A80D0
:105EA00000BF0C37BD4680BC704780B483B000AFE4
:105EB00078600B46FB70FB78002B08D07B681B8852
:105EC0009BB243F002039AB27B681A8007E07B68BA
:105ED0001B889BB223F002039AB27B681A8000BF32
:105EE0000C37BD4680BC704780B483B000AF78608B
:105EF0000B467B807B88002B08D07B681B889BB27D
:105F000043F004039AB27B681A8007E07B681B8821
:105F10009BB223F004039AB27B681A8000BF0C374F
:105F2000BD4680BC704780B483B000AF78600B463C
:105F30007B807B687A889A8500BF0C37BD4680BC21
:105F4000704780B483B000AF78600B467B807B885D
:105F5000DB439AB27B681A8200BF0C37BD4680BC17
:105F6000704780B485B000AF78600B467B8000231B
:105F7000FB730023BB8100237B817B681B8A9AB261
:105F80007B881340BB817B689B899AB27B881340D6
:105F90007B81BB89002B05D07B89002B02D001239C
:105FA000FB7301E00023FB73FB7B18461437BD46EF
:105FB00080BC704780B483B000AF78600B467B80B4
:105FC0007B88DB439AB27B681A8200BF0C37BD46E0
:105FD00080BC704780B582B000AF78607B68264A8D
:105FE00093420AD101214FF48040FFF773FC002156
:105FF0004FF48040FFF76EFC3AE07B681F4A934203
:106000000AD101214FF40030FFF782FC00214FF448
:106010000030FFF77DFC2BE07B68194A93420AD1E0
:1060200001214FF48020FFF773FC00214FF4802002
:10603000FFF76EFC1CE07B68124A93420AD10121F3
:106040004FF40020FFF764FC00214FF40020FFF71D
:106050005FFC0DE07B680C4A934209D101214FF4AB
:106060008010FFF755FC00214FF48010FFF750FC23
:1060700000BF0837BD4680BD0038014000440040E5
:1060800000480040004C00400050004080B58CB0FB
:1060900000AF786039600023FB620023BB620023FD
:1060A0007B6200233B620023FB617B68FB617B68B2
:1060B0001B8A9BB2FB62FA6A4CF6FF731340FB62C9
:1060C0003B68DB881A46FB6A1343FB62FB6A9AB2A1
:1060D0007B681A827B689B899BB2FB62FA6A4EF6E8
:1060E000F3131340FB623B689A883B681B89134398
:1060F0009AB23B685B8913439BB21A46FB6A13430F
:10610000FB62FB6A9AB27B689A817B689B8A9BB22E
:10611000FB62FA6A4FF6FF431340FB623B689B89C0
:106120001A46FB6A1343FB62FB6A9AB27B689A8247
:1061300007F108031846FFF7C3FAFB692E4A93429A
:1061400002D17B69BB6201E03B69BB627B689B89D2
:106150009BB21BB2002B0CDABA6A13469B001344A5
:106160009A001A443B681B685B00B2FBF3F37B6246
:106170000BE0BA6A13469B0013449A001A443B682A
:106180001B689B00B2FBF3F37B627B6A1B4AA2FB9A
:1061900003235B091B01FB62FB6A1B09642202FBF0
:1061A00003F37A6AD31A3B627B689B899BB21BB26A
:1061B000002B0CDA3B6ADB003233104AA2FB0323CC
:1061C0005B0903F00703FA6A1343FB620BE03B6AC7
:1061D0001B013233094AA2FB03235B0903F00F03BF
:1061E000FA6A1343FB62FB6A9AB27B681A8100BFAA
:1061F0003037BD4680BD00BF003801401F85EB51E0
:1062000080B483B000AF78607B684FF416521A6098
:106210007B6800229A807B680022DA807B680022FB
:106220001A817B680C225A817B6800229A8100BF08
:106230000C37BD4680BC704780B483B000AF786037
:106240000B46FB70FB78002B08D07B689B899BB2C8
:1062500043F400539AB27B689A8107E07B689B897C
:106260009BB223F400539AB27B689A8100BF0C372B
:10627000BD4680BC704780B487B000AF78600B46E5
:106280007B8013467B7000233B610023FB6000236F
:10629000BB6000237B617B687B617B88DBB25B0931
:1062A000DBB23B617B8803F01F03FB600122FB68CC
:1062B00002FA03F3BB603B69012B03D17B690C330A
:1062C0007B6109E03B69022B03D17B6910337B6161
:1062D00002E07B6914337B617B78002B06D07B69FD
:1062E00019687B69BA680A431A6006E07B69196815
:1062F000BB68DA437B690A401A6000BF1C37BD46A1
:1063000080BC704780B483B000AF78600B467B8060
:1063100013467B707B78002B08D07B689B8A9AB2EF
:106320007B8813439AB27B689A8209E07B689B8AD8
:106330009AB27B88DB439BB213409AB27B689A8205
:1063400000BF0C37BD4680BC704780B483B000AF3F
:1063500078600B467B807B88C3F308039AB27B6826
:106360009A8000BF0C37BD4680BC704780B483B0B4
:1063700000AF78607B689B889BB2C3F308039BB235
:1063800018460C37BD4680BC704780B485B000AF5E
:1063900078600B467B800023FB737B681B889AB276
:1063A0007B8813409BB2002B02D00123FB7301E0DA
:1063B0000023FB73FB7B18461437BD4680BC704737
:1063C00080B483B000AF78600B467B807B88DB4372
:1063D0009AB27B681A8000BF0C37BD4680BC7047FC
:1063E00080B487B000AF78600B467B800023FB60F1
:1063F00000237B610023BB600023FB747B88DBB23E
:106400005B09DBB2BB607B8803F01F037B61012269
:106410007B6902FA03F37B61BB68012B07D17B68C0
:106420009B899BB21A467B6913407B6111E0BB6874
:10643000022B07D17B681B8A9BB21A467B691340EB
:106440007B6106E07B689B8A9BB21A467B6913409E
:106450007B617B881B0A9BB2FB600122FB6802FA0E
:1064600003F3FB607B681B889BB21A46FB681340F2
:10647000FB607B69002B05D0FB68002B02D0012359
:10648000FB7401E00023FB74FB7C18461C37BD46FF
:1064900080BC704780B485B000AF78600B467B80CD
:1064A0000023FB810023BB817B881B0AFB81FB89C6
:1064B000012202FA03F3BB81BB89DB439AB27B68FA
:1064C0001A8000BF1437BD4680BC704780B483B0CB
:1064D00000AF7860FEE7000080B584B000AF786060
:1064E000144B1B68002B02D1124B134A1A60114B3C
:1064F0001B68FB607B68033323F003037B600D4B59
:106500001A687B6813440D4A934207D922F0D4FDE0
:1065100002460C2313604FF0FF3306E0054B1A6868
:106520007B681344034A1360FB6818461037BD4666
:1065300080BD00BF080300204428002000BC0020CC
:1065400080B483B000AF786039607B6801221A6044
:106550003B68034A1A6000BF0C37BD4680BC7047D9
:10656000180000200FB480B582B000AF07F114030B
:106570003B603B683A6980210A4823F027FE786037
:106580007B68002B05DD7B681946064800F00CF897
:1065900078607B6818460837BD46BDE8804004B087
:1065A000704700BF1003002080B582B000AF786054
:1065B00039603968786800F005F8034618460837EE
:1065C000BD4680BDB0B590B000AF786039607A68E4
:1065D0003B68134493F90030002B0BD104233B6339
:1065E0007B68FB623C6BFD6A20462946ABBE0446D5
:1065F000BC6236E03B68FB6330E0FB6B102B28BFCE
:1066000010237B630023BB630EE07B6893F90010CB
:1066100007F10C02BB6B13440A461A70BB6B0133C3
:10662000BB637B6801337B60BA6B7B6B9A42ECD3B4
:1066300007F10C02BB6B134400221A7004237B6227
:1066400007F10C033B627C6A3D6A20462946ABBEDB
:106650000446FC61FA6B7B6BD31AFB63FB6B002B6C
:10666000CBD13B6818464037BD46B0BD80B500AFC2
:1066700000F0CEF8024B034A9A6000BF80BD00BF15
:1066800000ED00E00030000880B500AF00F0F4F845
:1066900000BF80BD80B584B000AFF860B9607A609B
:1066A0003B603448FFF75EFFFB681B6819463248C1
:1066B000FFF758FFFB685B6819463048FFF752FF49
:1066C000FB689B6819462E48FFF74CFFFB68DB68A8
:1066D00019462C48FFF746FFFB681B6919462A48F4
:1066E000FFF740FFFB685B6919462848FFF73AFF50
:1066F000FB689B6919462648FFF734FFFB68DB6996
:1067000019462448FFF72EFF2348FFF72BFFB968EF
:106710002248FFF727FF224BDB6A19462148FFF783
:1067200021FF1F4B1B6B19461F48FFF71BFF1C4B1C
:10673000DB6B19461D48FFF715FFBB6803F08003AC
:10674000002B03D079681A48FFF70CFFBB6803F4ED
:106750000043002B03D039681648FFF703FF1648A3
:10676000FFF700FFB9691548FFF7FCFE00BF1037BF
:10677000BD4680BD8CB802089CB80208ACB80208BF
:10678000BCB80208CCB80208DCB80208ECB80208B1
:10679000FCB802080CB902081CB9020828B90208A2
:1067A00000ED00E038B9020848B9020858B90208FB
:1067B00068B9020878B9020888B9020890B90208D5
:1067C00080B485B000AF78600B467B807B689B69A6
:1067D000FB60FB681B887A889A4213D17B681B6830
:1067E000BB60BB68032B03D0042B03D000230AE05B
:1067F00000BF00E000BF7B689B699A1C7B689A61C0
:10680000012300E0002318461437BD4680BC7047C2
:1068100080B500AF154B1B68144A43F001031360A9
:10682000124B5A681149124B13404B600F4B1B68B7
:106830000E4A23F0847323F4803313600B4B1B68E0
:106840000A4A23F480231360084B5B68074A23F449
:10685000FE035360054B4FF41F029A6000F078F876
:10686000044B4FF000629A6000BF80BD00100240F0
:106870000000FFF800ED00E080B485B000AF002319
:10688000FB600023BB6000237B602C4B5B6803F044
:106890000C03FB60FB68042B07D0082B09D0002BEE
:1068A00033D1274B274A1A6033E0254B254A1A601B
:1068B0002FE0224B5B6803F47013BB601F4B5B68D7
:1068C00003F480337B60BB689B0C0233BB607B6846
:1068D000002B06D1BB681C4A02FB03F3184A136065
:1068E00017E0164B5B6803F40033002B06D0BB683F
:1068F000154A02FB03F3124A13600AE0BB68114A0F
:1069000002FB03F30E4A136003E00D4B0D4A1A60BD
:1069100000BF0A4B5B681B0903F00F030B4AD35CF3
:10692000DBB2FB60064B1A68FB6822FA03F3044AE9
:10693000136000BF1437BD4680BC70470010024092
:106940002000002000127A0000093D0024000020F1
:1069500080B500AF00F002F800BF80BD80B483B006
:1069600000AF00237B6000233B603A4B1B68394A31
:1069700043F480331360374B1B6803F400333B60F0
:106980007B6801337B603B68002B03D17B68B3F5E8
:10699000A06FF0D12F4B1B6803F40033002B02D003
:1069A00001233B6001E000233B603B68012B4BD19E
:1069B000294B1B68284A43F010031360264B1B68C1
:1069C000254A23F003031360234B1B68224A43F03C
:1069D000020313601F4B1F4A5B6853601D4B1D4A27
:1069E0005B6853601B4B5B681A4A43F480635360D7
:1069F000184B5B68174A23F47C135360154B5B6894
:106A0000144A43F4E8135360124B1B68114A43F0D5
:106A10008073136000BF0F4B1B6803F00073002BE3
:106A2000F9D00C4B5B680B4A23F003035360094B0E
:106A30005B68084A43F00203536000BF054B5B6884
:106A400003F00C03082BF9D100BF0C37BD4680BC06
:106A5000704700BF001002400020024080B483B0A5
:106A600000AF78607B6800221A807B6800229A70F1
:106A70007B680022DA707B6800221A717B68002232
:106A80005A717B680022DA807B6818460C37BD4655
:106A900080BC704780B582B000AF78600B46FB7059
:106AA0007B6800221A807B68214A5A607B68052235
:106AB0001A817B6800229A727B680C331846FFF7B4
:106AC000CDFF7B6840F241125A617B6800229A61D7
:106AD0007B680022DA617B6800221A627B680022F0
:106AE0005A627B6800229A627B684FF48032DA62D5
:106AF0007B6814221A637B6800225A637B68002239
:106B00009A637B680B4ADA637B680B4A1A647B687A
:106B100000225A647B680022A3F84A207B68012285
:106B200083F848207B6818460837BD4680BD00BF03
:106B3000AE47E13D5300001024000DC180B485B084
:106B400000AF786039600023FB600023BB60002346
:106B5000BB60BB68632B0DD80023FB60FA683B6801
:106B60009A4203D2FB680133FB60F7E7BB6801334D
:106B7000BB60EEE700BF1437BD4680BC7047000025
:106B8000B0B586B000AFF8607A603B600B467B81A1
:106B9000FB683A685A607B89184621F0C1FB58A30C
:106BA000D3E9002321F026FC03460C461846214673
:106BB0004FF000025A4B21F047FD03460C46254694
:106BC0001C46FB685B68184621F0BCFB4EA3D3E96A
:106BD000002321F059FA02460B462046294621F0AF
:106BE00009FC03460C461846214649A3D3E9002375
:106BF00021F02AFD03460C46184621464FF00002BC
:106C0000484B21F03FFA03460C461846214621F036
:106C1000B3FE0346FB75FB7D0F2B44D80121F868BA
:106C200000F049FD7B89184621F07AFB34A3D3E9B3
:106C3000002321F0DFFB03460C46184621464FF0A7
:106C40000002374B21F000FD03460C4625461C464A
:106C5000FB685B68184621F075FB2BA3D3E9002382
:106C600021F012FA02460B462046294621F0C2FBCB
:106C700003460C461846214627A3D3E9002321F0FA
:106C8000E3FC03460C46184621464FF00002254B14
:106C900021F0F8F903460C461846214621F06CFE17
:106CA0000346FB7509E0F86800F0B8FD0346002BC9
:106CB00003D00021F86800F0FEFCFB7D1946F8685F
:106CC00000F0BDFBFB7D184621F080FF034679688C
:106CD000184621F0CFFF0346184622F0CDF90346AF
:106CE000DBB21946F86800F08BFBFB687A89A3F8E1
:106CF0004A2000BF1837BD46B0BD00BFAFF30080CB
:106D00008DD13AAA9AA046407B14AE47E17A943FCF
:106D1000CDCCCCCCCCCCD43F0AD7A3703D0AC73F56
:106D200000408F400000F03FB0B582B000AF786007
:106D3000786800F0B8FB03460133184621F046FF9F
:106D40000346184621F0FEFA4FF000022C4B21F0CA
:106D50007BFC03460C4625461C46786800F05EFD29
:106D60000346002B03D01EA1D1E9000102E01EA1C1
:106D7000D1E9000122462B4621F03CFB03460C469C
:106D800025461C467B685B68184621F0DBFA18A391
:106D9000D3E9002321F078F902460B462046294624
:106DA00021F052FC03460C461846214612A3D3E9B3
:106DB000002321F049FC03460C46184621464FF0BB
:106DC0000002104B21F016FB03460C4618462146E4
:106DD00021F0D2FD03469BB218460837BD46B0BD30
:106DE0000AD7A3703D0AC73FCDCCCCCCCCCCD43F86
:106DF0007B14AE47E17A943F8DD13AAA9AA0F63F30
:106E00000000404000408F4080B584B000AFF86083
:106E10007A603B600B467B8179897B683A68F868C9
:106E2000FFF7AEFE00BF1037BD4680BD80B483B013
:106E300000AF78607B68B3F84A3018460C37BD461F
:106E400080BC704780B483B000AF78607B689B7A69
:106E500018460C37BD4680BC704780B483B000AF85
:106E600078607B6800229A7200BF0C37BD4680BCF8
:106E7000704780B582B000AF7860786800F09AFA09
:106E80000346002B07D0786800F075FC0346002B02
:106E900001D0012300E0002318460837BD4680BD1D
:106EA00080B582B000AF78600B467B807B88102B6A
:106EB0002ED0102B0BDC022B39D0022B02DC002B46
:106EC0003AD03EE0042B2DD0082B26D039E0402BC1
:106ED00014D0402B02DC202B15D032E0802B08D0C0
:106EE000B3F5807F00D02CE00021786800F003FC2F
:106EF00027E00121786800F0FEFB22E0022178689B
:106F000000F0F9FB1DE00321786800F0F4FB18E0C5
:106F10000421786800F0EFFB13E00521786800F0A9
:106F2000EAFB0EE00621786800F0E5FB09E00721A6
:106F3000786800F0E0FB04E00821786800F0DBFBF3
:106F400000BF00BF0837BD4680BD000080B582B0DD
:106F500000AF7860786800F078FC0346082B28D8EA
:106F600001A252F823F000BF8D6F0008936F000854
:106F7000976F00089B6F00089F6F0008A36F0008C1
:106F8000A76F0008AB6F0008AF6F00084FF4807365
:106F900010E080230EE040230CE020230AE01023C1
:106FA00008E0082306E0042304E0022302E00023B3
:106FB00000E0002318460837BD4680BD80B582B08A
:106FC00000AF78600B46FB70FB78103B262B65D832
:106FD00001A252F823F000BF757000089D700008F0
:106FE0009D7000089D7000089D7000089D7000084D
:106FF0009D7000089D7000087F7000089D7000085B
:107000009D7000089D7000089D7000089D7000082C
:107010009D7000089D7000089D7000089D7000081C
:107020009D7000089D700008897000089D70000820
:107030009D7000089D7000089D7000089D700008FC
:107040009D7000089D7000089D7000089D700008EC
:107050009D7000089D7000089D7000089D700008DC
:107060009D7000089D7000089D7000089D700008CC
:10707000937000080021786800F0FDFA0EE001210D
:10708000786800F0F8FA09E00221786800F0F3FA75
:1070900004E00321786800F0EEFA00BF00BF083773
:1070A000BD4680BD80B582B000AF7860786800F0E2
:1070B000A0FB0346032B13D801A252F823F000BF14
:1070C000D1700008D5700008D9700008DD70000884
:1070D000102306E0182304E0242302E0362300E016
:1070E000002318460837BD4680BD00BF80B487B076
:1070F00000AFF860B9601346FB710023FB750023F5
:10710000BB75BA7DFB799A4226D2BB7DBA6813441F
:107110001B787B7500233B753B7D072B18D8FB7DC7
:10712000DA117B7D03F001039A4207D0FB7D5B00FF
:107130005BB283F007035BB2FB7502E0FB7D5B0093
:10714000FB757B7D5B107B753B7D01333B75E3E716
:10715000BB7D0133BB75D4E7FB7D18461C37BD46AC
:1071600080BC704790B589B000AFF8607A601A466D
:107170000B46FB721346BB7207F1140300221A6020
:107180005A6005233B75FB7ABB757B681B0EDBB22F
:10719000FB757B681B0CDBB23B767B681B0ADBB2A2
:1071A0007B767B68DBB2BB76BC7ABA7A07F11403D4
:1071B0001946F868FFF79AFF03461A4607F12003BD
:1071C000234403F80C2C0023FB61BB7AFA699A4232
:1071D00015DC07F11402FB6913441B7818461EF0F6
:1071E00013FFFB681B8801339AB2FB681A800521E4
:1071F000F868FFF7A3FCFB690133FB61E5E7FB6877
:107200001B891946F868FFF799FC00BF2437BD4673
:1072100090BD90B58DB000AFF8607A601A460B460D
:10722000FB721346BB720023FB6105233B77FB7A9D
:10723000BB77BC7ABA7A07F11C031946F868FFF7E6
:1072400055FF03461A4607F13003234403F8142C74
:107250004FF000034FF00004C7E908340023FB623D
:10726000BB7AFA6A9A420BDC07F11C02FB6A1344F0
:107270001B7818461EF0C8FEFB6A0133FB62EFE77D
:10728000D7E908124FF000034FF00004130E00245A
:10729000DBB23B75D7E908124FF000034FF0000452
:1072A000130C0024DBB27B75D7E908124FF0000302
:1072B0004FF00004130A0024DBB2BB75D7E90812B3
:1072C0004FF000034FF0000413000024DBB2FB7505
:1072D000D7E908124FF000034FF000040B0E43EA09
:1072E0000223140EDBB23B76D7E908124FF00003FD
:1072F0004FF000040B0C43EA0243140CDBB27B7624
:10730000D7E908124FF000034FF000040B0A43EADC
:107310000263140ADBB2BB7697F82030FB7607F1E4
:10732000140307221946F868FFF7E0FE03461A46E1
:1073300097F820309A420CBF01230023DBB2002BC8
:107340000ED0D7E908124FF000034FF000040B0AEB
:1073500043EA0263140A1A467B681A60002300E0BD
:10736000012318463437BD4690BD80B582B000AFCA
:10737000786039607B683A689A617B689A6907230C
:1073800081217868FFF7EEFE00BF0837BD4680BD5B
:1073900080B584B000AF7860396003233A68062175
:1073A0007868FFF736FF0346FB73FB7B1846103700
:1073B000BD4680BD80B582B000AF78607B68443345
:1073C00019467868FFF7E4FF7B685B6C03F0010304
:1073D000002B14BF01230023DBB218460837BD463B
:1073E00080BD80B483B000AF786039607B68DA6AB2
:1073F0003B681A60002318460C37BD4680BC7047B6
:1074000080B582B000AF78600B46FB707B68DB6AAA
:1074100023F01F027B68DA627B68DA6AFB7803F08C
:107420001F031A437B68DA627B68DA6A07239021BC
:107430007868FFF797FE00BF0837BD4680BD80B56E
:1074400082B000AF78600B46FB707B68DB6A23F488
:10745000F8527B68DA627B68DA6AFB781B0203F415
:10746000F8531A437B68DA627B68DA6A0723902153
:107470007868FFF777FE00BF0837BD4680BD80B54E
:1074800082B000AF78607B682C3319467868FFF7CC
:10749000A8FF7B68DB6ADBB203F01F03DBB2184690
:1074A0000837BD4680BD80B582B000AF78607B688C
:1074B0002C3319467868FFF794FF7B68DB6A1B0A58
:1074C000DBB203F01F03DBB218460837BD4680BDB0
:1074D00080B582B000AF786039607B683A681A6323
:1074E0007B681A6B072391217868FFF73BFE00BF8A
:1074F0000837BD4680BD80B584B000AF7860396084
:1075000003233A6812217868FFF783FE0346FB7372
:10751000FB7B18461037BD4680BD80B483B000AFFA
:1075200078607B685B6B18460C37BD4680BC704743
:1075300080B584B000AF7860396003233A68712168
:107540007868FFF766FE0346FB73FB7B184610372F
:10755000BD4680BD80B582B000AF78607B684433A3
:1075600019467868FFF7E4FF7B685B6CDBB218466E
:107570000837BD4680BD80B584B000AF7860396003
:107580007B6893F84830002B05D07B68DA6B3B684A
:107590001A6000230CE003233A686C217868FFF737
:1075A00038FE0346FB733B681A687B68DA63FB7B33
:1075B00018461037BD4680BD80B582B000AF7860F8
:1075C0000B46FB707B68DB6B23F00F027B68DA6392
:1075D0007B68DA6BFB7803F00F031A437B68DA638E
:1075E0007B68DA6B0723EC217868FFF7BBFD00BFEF
:1075F0000837BD4680BD80B582B000AF78600B46CD
:10760000FB707B68DB6B23F070027B68DA637B685E
:10761000DA6BFB781B0103F070031A437B68DA63B3
:107620007B68DA6B0723EC217868FFF79BFD00BFCE
:107630000837BD4680BD80B582B000AF78600B468C
:10764000FB707B68DB6B23F4F0627B68DA637B683A
:10765000DA6BFB78DB0103F4F0631A437B68DA63CF
:107660007B68DA6B0723EC217868FFF77BFD00BFAE
:107670000837BD4680BD80B582B000AF78600B464C
:10768000FB707B68DB6B23F4C0327B68DA637B685A
:10769000DA6BFB78DB0303F4C0331A437B68DA63ED
:1076A0007B68DA6B0723EC217868FFF75BFD00BF8E
:1076B0000837BD4680BD80B582B000AF78600B460C
:1076C000FB707B68DB6B23F400327B68DA637B68DA
:1076D000DA6BFB785B0403F400331A437B68DA63EC
:1076E0007B68DA6B0723EC217868FFF73BFD00BF6E
:1076F0000837BD4680BD80B582B000AF78600B46CC
:10770000FB707B68DB6B23F070627B68DA637B68FD
:10771000DA6BFB781B0603F070631A437B68DA634D
:107720007B68DA6B0723EC217868FFF71BFD00BF4D
:107730000837BD4680BD80B582B000AF78600B468B
:10774000FB707B68DB6B23F080527B68DA637B68BD
:10775000DA6BFB781B0703F080531A437B68DA630C
:107760007B68DA6B0723EC217868FFF7FBFC00BF2E
:107770000837BD4680BD80B582B000AF78607B68B9
:107780003C3319467868FFF7F6FE7B68DB6BDBB2AB
:1077900003F00F03DBB218460837BD4680BD80B545
:1077A00082B000AF78607B683C3319467868FFF799
:1077B000E2FE7B68DB6B1B09DBB203F00703DBB285
:1077C00018460837BD4680BD80B582B000AF7860EE
:1077D0007B683C3319467868FFF7CDFE7B68DB6B2E
:1077E000DB09DBB203F00F03DBB218460837BD46F6
:1077F00080BD80B582B000AF78607B683C331946AD
:107800007868FFF7B8FE7B68DB6BDB0BDBB203F05D
:107810000303DBB218460837BD4680BD80B582B091
:1078200000AF78607B683C3319467868FFF7A3FEA9
:107830007B68DB6B03F40033002B14BF01230023B0
:10784000DBB218460837BD4680BD80B582B000AFB8
:1078500078607B683C3319467868FFF78CFE7B685C
:10786000DB6B1B0EDBB203F00F03DBB218460837ED
:10787000BD4680BD80B582B000AF78600B46FB701E
:10788000FB780333DBB219467868FFF7D4FE00BFFC
:107890000837BD4680BD80B582B000AF786078689B
:1078A000FFF792FF0346033BDBB25BB21846083793
:1078B000BD4680BD80B582B000AF78600B46FB70DE
:1078C000FB78013BDBB219467868FFF794FE00BFF6
:1078D0000837BD4680BD80B582B000AF786078685B
:1078E000FFF75DFF03460133DBB218460837BD469C
:1078F00080BD80B584B000AF786039607B6893F854
:107900004830002B01D0012308E003233A686F219F
:107910007868FFF77EFC0346FB73FB7B1846103745
:10792000BD4680BD80B584B000AF78600023FB60A9
:1079300007F10C0319467868FFF7DBFFFB68184670
:107940001037BD4680BD80B582B000AF78607B68DF
:10795000443319467868FFF7CCFF7B685B6C03F013
:107960000103002B14BF01230023DBB218460837A4
:10797000BD4680BD80B582B000AF78607B6844337F
:1079800019467868FFF7B5FF7B685B6C03F002036C
:10799000002B14BF01230023DBB218460837BD4675
:1079A00080BD80B582B000AF78607B6844331946F3
:1079B0007868FFF79EFF7B685B6C03F00403002B85
:1079C00014BF01230023DBB218460837BD4680BD33
:1079D00080B582B000AF78607B6844331946786820
:1079E000FFF787FF7B685B6C03F00803002B14BF75
:1079F00001230023DBB218460837BD4680BD80B5A1
:107A000082B000AF78607B68443319467868FFF72E
:107A100070FF7B685B6C03F01003002B14BF012325
:107A20000023DBB218460837BD4680BD80B582B062
:107A300000AF78607B68443319467868FFF759FFD8
:107A40007B685B6C03F02003002B14BF0123002331
:107A5000DBB218460837BD4680BD80B582B000AFA6
:107A600078607B68443319467868FFF742FF7B688B
:107A70005B6C03F04003002B14BF01230023DBB237
:107A800018460837BD4680BD80B582B000AF78602B
:107A90007B68443319467868FFF72BFF7B685B6C83
:107AA00003F08003002B14BF01230023DBB2184630
:107AB0000837BD4680BD80B582B000AF78607B6876
:107AC000443319467868FFF714FF7B685B6C03F456
:107AD0008073002B14BF01230023DBB21846083744
:107AE000BD4680BD80B582B000AF78607B6844330E
:107AF00019467868FFF7FDFE7B685B6C03F4007342
:107B0000002B14BF01230023DBB218460837BD4603
:107B100080BD80B582B000AF78607B684433194681
:107B20007868FFF7E6FE7B685B6C03F48063002BEC
:107B300014BF01230023DBB218460837BD4680BDC1
:107B400080B582B000AF78607B68443319467868AE
:107B5000FFF7CFFE7B685B6C03F40063002B14BF60
:107B600001230023DBB218460837BD4680BD80B52F
:107B700082B000AF78607B68443319467868FFF7BD
:107B8000B8FE7B685B6C1B0C9BB203F01F039BB2BF
:107B900018460837BD4680BD80B582B000AF78601A
:107BA0007B68443319467868FFF7A3FE7B685B6CFB
:107BB00003F08043002B14BF01230023DBB21846DF
:107BC0000837BD4680BD80B582B000AF78607B6865
:107BD000443319467868FFF78CFE7B685B6CDB0FDB
:107BE000DBB218460837BD4680BD80B582B000AF15
:107BF00078600B46FB707B685B6923F001027B6851
:107C00005A617B685A69FB781A437B685A617B68C2
:107C10005A69072380217868FFF7A4FA00BF083764
:107C2000BD4680BD80B582B000AF78600B46FB706A
:107C30007B685B6923F004027B685A617B685A6940
:107C4000FB789B0003F004031A437B685A617B684E
:107C50005A69072380217868FFF784FA00BF083744
:107C6000BD4680BD80B582B000AF78600B46FB702A
:107C70007B685B6923F040027B685A617B685A69C4
:107C8000FB789B0103F040031A437B685A617B68D1
:107C90005A69072380217868FFF764FA00BF083724
:107CA000BD4680BD80B582B000AF78600B46FB70EA
:107CB0007B685B6923F080027B685A617B685A6944
:107CC000FB78DB01DBB21A437B685A617B685A6937
:107CD000072380217868FFF745FA00BF0837BD46C3
:107CE00080BD80B582B000AF78600B46FB707B68CA
:107CF0001B6C23F0FF027B681A647B681A6CFB78AC
:107D00001A437B681A647B681A6C0723F021786831
:107D1000FFF728FA00BF0837BD4680BD80B582B0A6
:107D200000AF78600B46FB707B681B6C23F47F42CE
:107D30007B681A647B681A6CFB781B029BB21A433F
:107D40007B681A647B681A6C0723F0217868FFF758
:107D500009FA00BF0837BD4680BD80B582B000AFCC
:107D600078600B46FB707B681B6C23F440327B68A9
:107D70001A647B681A6CFB781B0403F440331A43C3
:107D80007B681A647B681A6C0723F0217868FFF718
:107D9000E9F900BF0837BD4680BD80B582B000AFAD
:107DA00078600B46FB707B681B6C23F480227B6839
:107DB0001A647B681A6CFB789B0403F480231A43D3
:107DC0007B681A647B681A6C0723F0217868FFF7D8
:107DD000C9F900BF0837BD4680BD80B582B000AF8D
:107DE00078600B46FB707B681B6C23F400227B6879
:107DF0001A647B681A6CFB78DB0403F400231A43D3
:107E00007B681A647B681A6C0723F0217868FFF797
:107E1000A9F900BF0837BD4680BD80B582B000AF6C
:107E200078600B46FB707B681B6C23F070627B688C
:107E30001A647B681A6CFB781B0603F070631A43A4
:107E40007B681A647B681A6C0723F0217868FFF757
:107E500089F900BF0837BD4680BD80B582B000AF4C
:107E600078600B46FB707B681B6C23F070427B686C
:107E70001A647B681A6CFB781B071A437B681A64C8
:107E80007B681A6C0723F0217868FFF76BF900BF55
:107E90000837BD4680BD80B483B000AF78607B6892
:107EA00018460C37BD4680BC704780B582B000AF25
:107EB00078607B6893F90030002B09D07B685A1CEE
:107EC0007A6093F90030DBB2184600F0A3F8F0E7CF
:107ED00000BF0837BD4680BD80B582B000AF786076
:107EE0007868FFF7E2FF00BF0837BD4680BD00009D
:107EF00080B400AF034B93F88030DBB21846BD4628
:107F000080BC70479003002080B483B000AF03466C
:107F1000FB71044AFB7982F8813000BF0C37BD4603
:107F200080BC70479003002080B400AF034B93F8EF
:107F30008130DBB21846BD4680BC704790030020FC
:107F400080B584B000AF0346FB71FFF7EDFF034639
:107F5000BB730F4B93F88030FB73FB7B0133DBB2B9
:107F600003F07F037B73FB793B737A7BBB7B9A4285
:107F700005D0FB7B397B064AD1547B7BFB73044ADB
:107F8000FB7B82F8803000BF1037BD4680BD00BF4C
:107F90009003002080B584B000AF78600123FB73AC
:107FA00078681EF09BF800BF1037BD4680BD00000A
:107FB00080B582B000AFFFF79BFF0346FB710F4B0C
:107FC00093F88130BB71FA79BB799A4202D14FF0B4
:107FD000FF330EE0BB79094AD35C3B60BB790133C8
:107FE000DBB203F07F03BB71BB791846FFF78CFF50
:107FF0003B6818460837BD4680BD00BF900300208F
:1080000080B500AFFFF774FF03461846FFF77CFF0B
:1080100000BF80BD80B582B000AF0346FB71FB7925
:1080200018461EF03BF800BF0837BD4680BD80B53E
:1080300082B000AF03463960FB7197F907303968A9
:10804000184600F020F800BF0837BD4680BD80B557
:1080500082B000AF03463960FB71FB79396818467E
:1080600000F03DF800BF0837BD4680BD80B582B046
:1080700000AF786039603968786800F004F800BFB4
:108080000837BD4680BD80B582B000AF78603960EA
:108090003B68002B05D17B68DBB21846FFF7BAFFBF
:1080A00019E03B680A2B0FD17B68002B06DA002110
:1080B0002D20FFF7BCFF7B685B427B607B680A2159
:1080C000184600F035F806E07B683A68D2B21146EF
:1080D000184600F02DF800BF0837BD4680BD80B5BA
:1080E00082B000AF786039603B68002B05D17B68B7
:1080F000DBB21846FFF78EFF05E03B68DBB219469E
:10810000786800F015F800BF0837BD4680BD80B51F
:1081100084B000AFC7E902017A607B68DBB21A461F
:10812000D7E9020100F060F800BF1037BD4680BDFE
:1081300080B58CB000AF78600B46FB707B68002B7D
:1081400049D0002387F82F307B68002B1AD0FA78AB
:108150007B68B3FBF2F102FB01F2991A97F92F2029
:10816000D3B20133DBB287F82F301346CAB207F11E
:1081700030010B4403F8242CFB787A68B2FBF3F34C
:108180007B60E1E797F92F30DAB2013AD2B287F893
:108190002F20002B14BF01230023DBB2002B1ED0A5
:1081A00097F92F3007F13002134413F8243C97F964
:1081B0002F2007F130010A4412F8242C092A01D893
:1081C000302200E037221344DBB25BB200211846B4
:1081D000FFF72DFFD6E700213020FFF728FF00BF73
:1081E0003037BD4680BD000090B58DB000AFC7E907
:1081F00002011346FB714FF000024FF00003D7E974
:10820000020120F069FB0346002B09D000212D203C
:10821000FFF70DFFBB68BB60FB6883F00043FB60AA
:108220004FF000033E4CC7E90A34002387F827309B
:1082300097F82720FB799A4210D237A3D3E900237D
:10824000D7E90A0120F0D6F803460C46C7E90A34FC
:1082500097F82730013387F82730E9E7D7E90A2371
:10826000D7E902011FF010FF03460C46C7E90234AC
:10827000D7E9020120F080FB03467B61786920F09A
:108280003FF803460C461A462346D7E902011FF081
:10829000F9FE03460C46C7E906340A217869FFF760
:1082A0001EFFFB79002B32D000212E20FFF7BFFEEE
:1082B000FB795A1EFA71002B14BF01230023DBB295
:1082C000002B24D04FF00002164BD7E9060120F016
:1082D00091F803460C46C7E90634D7E9060120F0B9
:1082E00023FB03463B610A213869FFF7BFFE38696B
:1082F00020F016F803460C461A462346D7E9060135
:108300001FF0C0FE03460C46C7E90634D0E700BFA5
:108310003437BD4690BD00BF9A9999999999B93F54
:108320000000E03F0000244080B582B000AF7860DC
:1083300039607B68012B07D13B684FF6FF7293428F
:1083400002D10348FFF7A7FD00BF0837BD4680BD37
:108350001404002080B500AF4FF6FF710120FFF735
:10836000E3FF80BD80B582B000AF786078681EF012
:10837000E5FC034618460837BD4680BD80B582B08F
:1083800000AF786078681EF085FD03461846083710
:10839000BD4680BD80B400AF024B1B781846BD4679
:1083A00080BC70473400002080B400AF044B1B78C1
:1083B00083F00103DBB21846BD4680BC704700BFA6
:1083C0003400002080B500AF1EF020FB0246024BB7
:1083D0001A6000BF80BD00BF740F002080B483B05E
:1083E00000AF786039607A683B689A4201D27B6856
:1083F00000E03B6818460C37BD4680BC7047000063
:1084000080B500AF10211020FFF7E8FF03461A46A1
:108410000249034820F065FE00BF80BD800D0020AA
:10842000700D002080B500AF10211020FFF7D6FF9F
:1084300003461A460249034820F053FE00BF80BDA0
:10844000700D0020800D002080B400AF034B03228C
:108450001A7000BFBD4680BC704700BFB40000204A
:1084600090B583B000AF0346FB71FB790E4A32F939
:108470001330184620F0AAFB03460C49184620F09A
:10848000F9FB03461846FB79094A52F82330FC7978
:10849000194620F0EFFB03461A46064B43F824200A
:1084A00000BF0C37BD4690BD580000200AD7233CC2
:1084B000201900205C00002080B584B000AF034686
:1084C0003960FB71FB793A681268104941F8232042
:1084D0000023FB73FB7B012B14D8FB7B0B4A52F868
:1084E00023304FF00001184620F058FD0346002BC2
:1084F00004D0FB7B054A064942F82310FB7B01337D
:10850000FB73E7E700BF1037BD4680BD1819002098
:108510000000E03F80B588B004AFF860B9607A60D1
:108520003B6007F1200302933B7F0193BB690093FB
:108530003B687A68B968F8680EF052FC0346184642
:108540001037BD4680BD90B58BB004AFF860B96000
:108550003B601346FB71FB687B6178697B69191D81
:108560007B6903F10802FB6803F10C043B460293AC
:10857000FB790193BB68009323460EF031FC034660
:1085800018461C37BD4690BD80B584B000AFF8607A
:10859000B9607A603B603B687A68B968F8680EF049
:1085A0008DFC00BF1037BD4680BD80B582B000AFE6
:1085B0007860796803200EF0FBFC00BF0837BD46E9
:1085C00080BD000080B400AF074B1B78DAB2074BC8
:1085D0001B78DBB29A4214BF01230023DBB218469A
:1085E000BD4680BC704700BF981800209B18002033
:1085F00080B483B000AF0346FB71FB79034A52F8A5
:10860000233018460C37BD4680BC7047701B0020D5
:1086100080B483B000AF0346FB71FB79034A32F9A3
:10862000133018460C37BD4680BC70477C1B0020B9
:1086300080B582B000AF03460A46FB8013467B71CB
:108640007B790649FA8821F813207B79184611F0C6
:10865000A7FB00BF0837BD4680BD00BF7C1B0020C4
:1086600090B583B000AF0346FB71FB790C4A32F939
:108670001330184620F0AAFAFB790A4A52F8233040
:1086800001221446194620F0B1FC0346002B01D10B
:1086900000231C46E3B218460C37BD4690BD00BF10
:1086A0007C1B0020701B002090B583B000AF0346F8
:1086B000FB71FB790C4A32F91330184620F086FA28
:1086C000FB790A4A52F8233001221446194620F059
:1086D0006FFC0346002B01D100231C46E3B2184671
:1086E0000C37BD4690BD00BF7C1B0020701B0020D6
:1086F00080B400AF024B1B681846BD4680BC704773
:10870000801B002080B400AF034BB3F90030184643
:10871000BD4680BC704700BF861B002098B500AFE7
:108720000A4BB3F90030184620F050FA084B1B688A
:1087300001221446194620F059FC0346002B01D1B2
:1087400000231C46E3B2184698BD00BF861B0020DC
:10875000801B002098B500AF0A4BB3F900301846D3
:1087600020F034FA084B1B6801221446194620F009
:108770001FFC0346002B01D100231C46E3B2184620
:1087800098BD00BF861B0020801B002080B483B0F2
:1087900000AF03463960FB80B7F906203B6893427F
:1087A000A8BF134618460C37BD4680BC7047000072
:1087B00080B582B000AF0346FB80B7F906304FF4B6
:1087C0009B711846FFF7E2FF03461AB2034B1A806B
:1087D00011F034FB00BF0837BD4680BD861B00206A
:1087E00080B400AF00BFBD4680BC704780B483B08A
:1087F00000AF03460A46FB711346BB800C4B1B7847
:108800001A46FB7942FA03F303F00103002B0AD066
:10881000FB79084A52F82310B7F90420FB790A447F
:10882000044941F8232000BF0C37BD4680BC704787
:10883000910D0020C81B002080B582B000AF786089
:108840000B46FB70FB783C2B01D93C23FB70094A9B
:10885000FB7813701EF0DAF80146FB784FF47A7259
:1088600002FB03F30B44044A136000BF0837BD4604
:1088700080BD00BF711C0020741C002080B582B038
:1088800000AF7860786800F016F80346002B02D03D
:10889000786806F08CFC7B6818460837BD4680BDBA
:1088A00080B483B000AF78607B689B6818460C3753
:1088B000BD4680BC704780B483B000AF78607B68F1
:1088C000DB78002B14BF01230023DBB218460C37E2
:1088D000BD4680BC704780B483B000AF78607B68D1
:1088E00000229A7000BF0C37BD4680BC704780B430
:1088F00083B000AF78607B68D3F80C297B68D3F82D
:1089000008399A422CBF01230023DBB218460C37EA
:10891000BD4680BC704780B582B000AF78607B6890
:1089200003F505631846FFF7BBFF02467B68C3F8F3
:108930000C297B6803F50563184606F0C2FF034661
:1089400018460837BD4680BD80B582B000AF78605C
:1089500039607B683A68C3F80C297B6803F50563C6
:108960003968184607F0F5F900BF0837BD4680BDE5
:1089700080B500AF0FF094FF00BF80BD80B483B01E
:1089800000AF786039603B681A687B681A607B6862
:1089900018460C37BD4680BC7047000080B582B0D9
:1089A00000AF7860786800F011F803461A46064B6D
:1089B000A3FB0213D21A520813441B0A9BB2DBB268
:1089C00018460837BD4680BD61F3196780B582B08F
:1089D00000AF7860786800F00DF80246044BA3FB06
:1089E00002231B099BB218460837BD4680BD00BF55
:1089F000ABAAAAAA80B582B000AF7860786800F010
:108A00000BF80246034BA3FB02235B091846083709
:108A1000BD4680BD8988888880B582B000AF786007
:108A2000786800F00BF80246034BA3FB02235B09B6
:108A300018460837BD4680BD8988888880B483B0D1
:108A400000AF78607B681B6818460C37BD4680BC59
:108A50007047000080B58CB004AF786039607868EA
:108A6000FFF79CFF0346FB617868FFF7AFFF034603
:108A70003A4AA2FB0312991A49080A44120A40F220
:108A80006D1101FB02F29B1A9BB2BB617868FFF784
:108A9000B1FF0146324BA3FB01231A0913465B00C9
:108AA0001344DB00CA1A7A617868FFF7B5FF014604
:108AB0002C4BA3FB01235A0913461B019B1A9B0055
:108AC000CA1A3A617868FFF7B9FF0146254BA3FB44
:108AD00001235A0913461B019B1A9B00CA1AFA600C
