:020000040800F2
:10000000000001205D030008650300086D0300087F
:10001000F5030008FD03000851040008000000007B
:10002000000000000000000000000000A50400081F
:10003000AD04000800000000B5040008BD0400087D
:10004000D5040008D5040008D5040008D50400082C
:10005000D5040008D5040008D5040008D50400081C
:10006000D5040008D5040008D5040008D50400080C
:10007000D5040008D5040008D5040008D5040008FC
:10008000D5040008D5040008D5040008D5040008EC
:10009000D5040008D5040008D5040008D5040008DC
:1000A000D5040008D5040008D5040008D5040008CC
:1000B000E1CA0108D5040008D5040008D5040008E9
:1000C000D5040008D5040008D5040008D5040008AC
:1000D000D50400080DC60108D5040008D5040008A1
:1000E000D5040008D5040008D5040008D50400088C
:1000F00025C70108D5040008D5040008D504000868
:10010000D5040008D5040008D5040008D50400086B
:10011000D5040008D504000835C60108D504000838
:10012000D5040008D5040008D5040008D50400084B
:1001300000000000000000000000000000000000BF
:1001400000000000000000000000000000000000AF
:10015000000000000000000000000000000000009F
:10016000000000000000000000000000000000008F
:10017000000000000000000000000000000000007F
:10018000000000000000000000000000000000006F
:10019000000000000000000000000000000000005F
:1001A000000000000000000000000000000000004F
:1001B000000000000000000000000000000000003F
:1001C000000000000000000000000000000000002F
:1001D000000000000000000000000000000000001F
:1001E0005FF8E0F180B58EB000AF04F045FB494BFD
:1001F000494A1A60494B484A1A60494B3B63494B8C
:10020000FB62494BBB62FB6A7B6207E03A6B131DE2
:100210003B637B6A191D796212681A60BA6A7B6A4D
:100220009A42F3D83B4B1B68404A934204D13B4B64
:100230001B683F4A934200D0FEE73E4B364A1A60A5
:100240003D4B354A1A603D4B3B623D4BFB613B6A7F
:10025000BB6104E0BB691A1DBA6100221A60FA6929
:10026000BB699A42F6D8334B1B68002B03D1324B43
:100270001B68002B00D0FEE704F00CFB3A463B1D48
:100280001146184604F03CFA2E4A2F4BD31A9B1005
:10029000FB600023BB6007E02B4ABB6852F82330A9
:1002A0009847BB680133BB60FA68BB689A42F3DCCD
:1002B000264A274BD31A9B10FB600023BB6007E044
:1002C000234ABB6852F823309847BB680133BB60B0
:1002D000FA68BB689A42F3DC7B683A6811461846B4
:1002E0000AF028FC78631B4A1B4BD31A9B107B61D6
:1002F0007B693B6108E03B69013B174A52F82330B8
:1003000098473B69013B3B613B69002BF3DC786B11
:1003100004F0B2F900000020BABADECAD002002010
:10032000783F020800000020D402002078563412E2
:1003300032547698D4020020E0150020D402002028
:10034000E41500200405000804050008280500083D
:10035000040500082C0500082805000880B500AF3A
:10036000FFF740FF80B400AF00BEFEE71EF0040FB1
:100370000CBFEFF30880EFF309807146524A104733
:1003800000BF80B588B002AF78603960174B5B6BF7
:100390007B61164B9B6B3B61144B9B6AFB60134B61
:1003A0001B6B03F00203002B10D0104BDB6A002BF9
:1003B0000CDA4BF6AB61786804F008FB0346002BBF
:1003C00004D00A4B4FF00042DA620CE0084804F017
:1003D000B7F93B6800933B697A69F968786804F07B
:1003E0005FFA00BEFEE71837BD4680BD00ED00E0B5
:1003F000681A020880B400AF00BEFEE71EF0040FCA
:100400000CBFEFF30880EFF3098071462F4A1047C5
:1004100000BF80B588B002AF786039600A4B5B6B73
:100420007B61094B9B6B3B61074B9B6AFB600748F9
:1004300004F086F93B6800933B697A69F96878684B
:1004400004F02EFA00BEFEE700ED00E0781A020884
:100450001EF0040F0CBFEFF30880EFF30980714624
:100460001B4A104700BF80B588B002AF7860396082
:100470000A4B5B6B7B61094B9B6B3B61074B9B6A38
:10048000FB60074804F05CF93B6800933B697A69BC
:10049000F968786804F004FA00BEFEE700ED00E0B9
:1004A000841A020880B400AF00BEFEE780B400AF3B
:1004B00000BEFEE780B400AF00BEFEE780B400AF30
:1004C00000BFBD4680BC70478303000813040008CA
:0C04D0006704000880B400AF00BEFEE727
:1004DC00783F020800000020D4020020783F020878
:1004EC000000000000000000D4020020E4150020F1
:1004FC0000000000000000009D570008B5AE000889
:10050C0039EC0008A5F10008ADF500082D1A01081A
:10051C00752701083137010885AE0108C5AE000802
:1005300080B582B000AF78607B68B3F5E06F13D010
:100540007B68B3F5C06F0FD07B68B3F5A06F0BD09D
:100550007B68B3F5806F07D07B68B3F5407F03D02D
:100560006321074804F0DEF8064A7B6843F0BF6366
:1005700043F40033D36000BF0837BD4680BD00BFE1
:100580001817020800ED00E080B586B000AF786073
:1005900000237B6100233B610F23FB607B68DB78DA
:1005A000002B07D07B68DB78012B03D07521334803
:1005B00004F0B8F87B685B780F2B03D976212F48BD
:1005C00004F0B0F87B689B780F2B03D977212B4878
:1005D00004F0A8F87B68DB78002B3AD0284BDB6866
:1005E000DB431B0A03F007037B617B69C3F1040350
:1005F0003B61FA687B6922FA03F3FB607B685B78F6
:100600001A463B6902FA03F37B617B689B781A46C2
:10061000FB6813407A6913437B617B691B017B6133
:10062000184A7B681B787969C9B213440A4683F873
:1006300000237B681B7803F01F0312497A68127845
:100640005209D2B21046012202FA03F341F82030D7
:100650000FE07B681B7803F01F030A497A68127861
:100660005209D2B2104601229A4000F1200341F80B
:10067000232000BF1837BD4680BD00BF18170208F1
:1006800000ED00E000E100E080B582B000AF7860EE
:100690007B681F4A93420BD07B681E4A934207D067
:1006A0007B681D4A934203D0BC211C4804F03AF8F1
:1006B0007B68174A93420AD101214FF4007001F080
:1006C000ABFB00214FF4007001F0A6FB1CE07B683F
:1006D000104A93420AD101214FF4806001F09CFB43
:1006E00000214FF4806001F097FB0DE07B680A4A1F
:1006F000934209D101214FF4004001F08DFB00210C
:100700004FF4004001F088FB00BF0837BD4680BDB4
:100710000024014000280140003C0140401702082D
:1007200080B584B000AF786039600023FB6000239F
:10073000FB727B68804A93420BD07B687F4A93426E
:1007400007D07B687E4A934203D0E5217D4803F0C1
:10075000E9FF3B681B68002B30D03B681B68B3F592
:10076000803F2BD03B681B68B3F5003F26D03B6829
:100770001B68B3F5403F21D03B681B68B3F5802F61
:100780001CD03B681B68B3F5A02F17D03B681B68D3
:10079000B3F5C02F12D03B681B68B3F5E02F0DD026
:1007A0003B681B68B3F5002F08D03B681B68B3F5A6
:1007B000102F03D0E621634803F0B4FF3B681B7998
:1007C000002B07D03B681B79012B03D0E7215D4844
:1007D00003F0A8FF3B685B79002B07D03B685B798F
:1007E000012B03D0E821574803F09CFF3B689B682E
:1007F000002B43D03B689B68B3F5003F3ED03B687D
:100800009B68B3F5802F39D03B689B68B3F5C02F48
:1008100034D03B689B68B3F5002F2FD03B689B68B2
:10082000B3F5202F2AD03B689B68B3F5402F25D025
:100830003B689B68B3F5602F20D03B689B68002B1A
:100840001CD03B689B68B3F5003F17D03B689B68A2
:10085000B3F5C02F12D03B689B68B3F5002F0DD0C5
:100860003B689B68B3F5202F08D03B689B68B3F5C5
:10087000402F03D0E921334803F054FF3B68DB6885
:10088000002B08D03B68DB68B3F5006F03D0EA218A
:100890002C4803F047FF3B681B7C002B03D03B68D0
:1008A0001B7C102B03D9EB21264803F03BFF7B6810
:1008B0005B68FB60FB6823F4702323F48073FB60A8
:1008C0003B681A683B681B791B021343FA681343A1
:1008D000FB607B68FA685A607B689B68FB60FA681B
:1008E000194B1340FB603B68DA683B689B681A430E
:1008F0003B685B795B001343FA681343FB607B68DA
:10090000FA689A607B68DB6AFB60FB6823F470031B
:10091000FB603B681B7C013BDAB2FB7A1343FB7242
:10092000FB7A1B05FA681343FB607B68FA68DA629E
:1009300000BF1037BD4680BD0024014000280140A3
:10094000003C014040170208FDF7F1FF80B582B07E
:1009500000AF78600B46FB707B68174A93420CD05F
:100960007B68164A934208D07B68154A934204D0AC
:100970004FF49A71134803F0D5FEFB78002B07D093
:10098000FB78012B04D040F235110E4803F0CAFE6B
:10099000FB78002B06D07B689B6843F001027B68E4
:1009A0009A6005E07B689B6823F001027B689A608F
:1009B00000BF0837BD4680BD00240140002801402B
:1009C000003C01404017020880B582B000AF78605B
:1009D0000B46FB707B68154A934208D07B68144A2B
:1009E000934204D040F24D11124803F09BFEFB7875
:1009F000002B07D0FB78012B04D04FF4A7710D48D2
:100A000003F090FEFB78002B06D07B689B6843F4D4
:100A100080727B689A6005E07B689B6823F4807233
:100A20007B689A6000BF0837BD4680BD0024014046
:100A3000003C01404017020880B582B000AF7860EA
:100A40007B680D4A93420CD07B680C4A934208D0D5
:100A50007B680B4A934204D04FF4C271094803F0FB
:100A600061FE7B689B6843F008027B689A6000BF68
:100A70000837BD4680BD00BF00240140002801406A
:100A8000003C01404017020880B584B000AF786098
:100A90000023FB737B68104A93420CD07B680F4A9B
:100AA000934208D07B680E4A934204D04FF4C97138
:100AB0000C4803F037FE7B689B6803F00803002BAB
:100AC00002D00123FB7301E00023FB73FB7B18467C
:100AD0001037BD4680BD00BF002401400028014002
:100AE000003C01404017020880B582B000AF78603A
:100AF0007B680D4A93420CD07B680C4A934208D025
:100B00007B680B4A934204D04FF4D571094803F037
:100B100009FE7B689B6843F004027B689A6000BF13
:100B20000837BD4680BD00BF0024014000280140B9
:100B3000003C01404017020880B584B000AF7860E7
:100B40000023FB737B68104A93420CD07B680F4AEA
:100B5000934208D07B680E4A934204D04FF4DC7174
:100B60000C4803F0DFFD7B689B6803F00403002B57
:100B700002D00123FB7301E00023FB73FB7B1846CB
:100B80001037BD4680BD00BF002401400028014051
:100B9000003C01404017020880B582B000AF786089
:100BA0000B46FB707B68174A93420CD07B68164A51
:100BB000934208D07B68154A934204D04FF4E97100
:100BC000134803F0AFFDFB78002B07D0FB78012B17
:100BD00004D040F2D3110E4803F0A4FDFB78002BA3
:100BE00006D07B689B6843F4A0027B689A6005E0AE
:100BF0007B689B6823F4A0027B689A6000BF08377B
:100C0000BD4680BD0024014000280140003C014059
:100C10004017020880B584B000AF786008461146DE
:100C20001A460346FB700B46BB7013467B700023CD
:100C3000FB600023BB607B68944A93420CD07B68C6
:100C4000934A934208D07B68924A934204D04FF46F
:100C50001671914803F066FDFB78002B37D0FB78C6
:100C6000012B34D0FB78022B31D0FB78032B2ED014
:100C7000FB78042B2BD0FB78052B28D0FB78062B98
:100C800025D0FB78072B22D0FB78082B1FD0FB78D0
:100C9000092B1CD0FB780A2B19D0FB780B2B16D014
:100CA000FB780C2B13D0FB780D2B10D0FB780E2B80
:100CB0000DD0FB780F2B0AD0FB78102B07D0FB78D8
:100CC000112B04D040F25921734803F02BFDBB785F
:100CD000002B02D0BB78102B04D940F25A216E4869
:100CE00003F020FD7B78002B19D07B78012B16D0E8
:100CF0007B78022B13D07B78032B10D07B78042BCE
:100D00000DD07B78052B0AD07B78062B07D07B781B
:100D1000072B04D040F25B215F4803F003FDFB7812
:100D2000092B23D97B68DB68FB60FB78A3F10A02FF
:100D300013465B001344072202FA03F3BB60BB684F
:100D4000DB43FA681340FB607978FB78A3F10A0271
:100D500013465B00134401FA03F3BB60FA68BB68F7
:100D60001343FB607B68FA68DA601EE07B681B69EE
:100D7000FB60FA7813465B001344072202FA03F380
:100D8000BB60BB68DB43FA681340FB607978FA7894
:100D900013465B00134401FA03F3BB60FA68BB68B7
:100DA0001343FB607B68FA681A61BB78062B21D875
:100DB0007B685B6BFB60BB785A1E13469B00134439
:100DC0001F2202FA03F3BB60BB68DB43FA681340DF
:100DD000FB60F978BB785A1E13469B00134401FA56
:100DE00003F3BB60FA68BB681343FB607B68FA6877
:100DF0005A6347E0BB780C2B21D87B681B6BFB60E8
:100E0000BB78DA1F13469B0013441F2202FA03F338
:100E1000BB60BB68DB43FA681340FB60F978BB78C2
:100E2000DA1F13469B00134401FA03F3BB60FA6810
:100E3000BB681343FB607B68FA681A6322E07B6837
:100E4000DB6AFB60BB78A3F10D0213469B001344E1
:100E50001F2202FA03F3BB60BB68DB43FA6813404E
:100E6000FB60F978BB78A3F10D0213469B00134495
:100E700001FA03F3BB60FA68BB681343FB607B684D
:100E8000FA68DA6200BF1037BD4680BD0024014019
:100E900000280140003C01404017020880B582B0A4
:100EA00000AF78607B68664A93422FD07B68654AC2
:100EB00093422BD07B68644A934227D07B68634A75
:100EC000934223D07B68624A93421FD07B68614A79
:100ED00093421BD07B68604A934217D07B685F4A7D
:100EE000934213D07B685E4A93420FD07B685D4A81
:100EF00093420BD07B685C4A934207D07B685B4A85
:100F0000934203D06F215A4803F00CFC7B681A68A7
:100F10004FF6FE7313407A6813607B6800221A60F4
:100F20007B6800225A607B6800229A607B680022FE
:100F3000DA607B68424A934206D14E4B5B684D4A69
:100F400043F00F03536077E07B683E4A934206D13B
:100F5000484B5B68474A43F0F00353606CE07B68A2
:100F6000394A934206D1434B5B68424A43F470636B
:100F7000536061E07B68354A934206D13D4B5B6824
:100F80003C4A43F47043536056E07B68304A9342D6
:100F900006D1384B5B68374A43F4702353604BE00B
:100FA0007B682C4A934206D1324B5B68314A43F44A
:100FB0007003536040E07B68274A934206D12D4B73
:100FC0005B682C4A43F07063536035E07B68234ACA
:100FD000934206D1284B5B68274A43F00F035360C6
:100FE0002AE07B681E4A934206D1234B5B68224A63
:100FF00043F0F00353601FE07B681A4A934206D126
:101000001D4B5B681C4A43F47063536014E07B68BB
:10101000154A934206D1184B5B68174A43F4704354
:10102000536009E07B68114A934205D1124B5B681B
:10103000114A43F47023536000BF0837BD4680BD9A
:10104000080002401C000240300002404400024000
:10105000580002406C000240800002400804024038
:101060001C04024030040240440402405804024080
:1010700070170208000002400004024080B584B0EE
:1010800000AF786039600023FB607B68764A93424A
:101090002FD07B68754A93422BD07B68744A934269
:1010A00027D07B68734A934223D07B68724A93426D
:1010B0001FD07B68714A93421BD07B68704A934271
:1010C00017D07B686F4A934213D07B686E4A934275
:1010D0000FD07B686D4A93420BD07B686C4A934279
:1010E00007D07B686B4A934203D0CF216A4803F054
:1010F00019FB3B689B68102B07D03B689B68002B53
:1011000003D0D021644803F00DFB3B68DB68002B63
:1011100004D03B68DB68B3F5803F03D3D1215E4840
:1011200003F000FB3B681B69402B07D03B681B6941
:10113000002B03D0D221584803F0F4FA3B685B69D6
:10114000802B07D03B685B69002B03D0D32152482A
:1011500003F0E8FA3B689B69002B0DD03B689B6964
:10116000B3F5807F08D03B689B69B3F5007F03D05F
:10117000D421494803F0D6FA3B68DB69002B0DD037
:101180003B68DB69B3F5806F08D03B68DB69B3F57A
:10119000006F03D0D521404803F0C4FA3B681B6AB6
:1011A000202B07D03B681B6A002B03D0D6213A487E
:1011B00003F0B8FA3B685B6AB3F5405F11D03B6857
:1011C0005B6AB3F5005F0CD03B685B6AB3F5805F88
:1011D00007D03B685B6A002B03D0D7212E4803F071
:1011E000A1FA3B689B6AB3F5804F07D03B689B6AC6
:1011F000002B03D0D821284803F094FA7B681B68A1
:10120000FB60FB6823F4FF4323F07003FB603B6843
:101210009A683B681B6A1A433B681B691A433B6820
:101220005B691A433B689B691A433B68DB691A4355
:101230003B685B6A1A433B689B6A1343FA68134333
:10124000FB607B68FA681A603B68DA687B685A6002
:101250003B681A687B689A603B685A687B68DA600A
:1012600000BF1037BD4680BD080002401C00024090
:101270003000024044000240580002406C0002402E
:1012800080000240080402401C0402403004024076
:1012900044040240580402407017020880B582B02E
:1012A00000AF78600B46FB707B682A4A934230D0CF
:1012B0007B68294A93422CD07B68284A934228D0E5
:1012C0007B68274A934224D07B68264A934220D0E9
:1012D0007B68254A93421CD07B68244A934218D0ED
:1012E0007B68234A934214D07B68224A934210D0F1
:1012F0007B68214A93420CD07B68204A934208D0F5
:101300007B681F4A934204D040F229111D4803F024
:1013100009FAFB78002B07D0FB78012B04D04FF49F
:101320009571184803F0FEF9FB78002B06D07B6816
:101330001B6843F001027B681A6006E07B681A684C
:101340004FF6FE7313407A68136000BF0837BD463E
:1013500080BD00BF080002401C0002403000024077
:1013600044000240580002406C00024080000240ED
:10137000080402401C0402403004024044040240BD
:10138000580402407017020880B588B000AF78603A
:1013900039600023FB6100233B610023BB61002314
:1013A000FB6000237B610023BB607B68824A934221
:1013B0001BD07B68814A934217D07B68804A934256
:1013C00013D07B687F4A93420FD07B687E4A93425A
:1013D0000BD07B687D4A934207D07B687C4A93425E
:1013E00003D0B2217B4803F09DF93B68DB78002BEA
:1013F0001FD03B68DB78042B1BD03B68DB78282BA5
:1014000017D03B68DB78482B13D03B68DB78142B74
:101410000FD03B68DB78102B0BD03B68DB781C2BA4
:1014200007D03B68DB78182B03D0B321694803F061
:1014300079F93B681B88002B03D1B421654803F080
:1014400071F93B68DB7803F00F03FB613B68DB78E5
:1014500003F01003002B15D03B689B78012B0BD0B9
:101460003B689B78022B07D03B689B78032B03D00B
:10147000BB21584803F056F93B689B781A46FB6934
:101480001343FB613B681B88DBB2002B44D07B68B5
:101490001B687B610023BB6138E00122BB6902FA53
:1014A00003F3FB603B681B881A46FB6813403B61F3
:1014B0003A69FB689A4226D1BB699B00FB600F2208
:1014C000FB6802FA03F3BB60BB68DB437A69134035
:1014D0007B61FA69FB6802FA03F37A6913437B6163
:1014E0003B68DB78282B05D10122BB699A407B68D9
:1014F0005A6108E03B68DB78482B04D10122BB69C4
:101500009A407B681A61BB690133BB61BB69072BD9
:10151000C3D97B687A691A603B681B88FF2B46D960
:101520007B685B687B610023BB613AE0BB69083381
:10153000012202FA03F3FB603B681B881A46FB6832
:1015400013403B613A69FB689A4227D1BB699B0013
:10155000FB600F22FB6802FA03F3BB60BB68DB434E
:101560007A6913407B61FA69FB6802FA03F37A69CE
:1015700013437B613B68DB78282B05D1BB690833BB
:1015800001229A407B685A613B68DB78482B05D181
:10159000BB69083301229A407B681A61BB69013339
:1015A000BB61BB69072BC1D97B687A695A6000BFF0
:1015B0002037BD4680BD00BF00080140000C01403F
:1015C000001001400014014000180140001C0140BF
:1015D00000200140A017020880B584B000AF7860F9
:1015E0000B467B800023FB737B68364A93421CD0FA
:1015F0007B68354A934218D07B68344A934214D0B2
:101600007B68334A934210D07B68324A93420CD0B5
:101610007B68314A934208D07B68304A934204D0B9
:101620004FF48F712E4803F07DF87B88012B39D061
:101630007B88022B36D07B88042B33D07B88082B09
:1016400030D07B88102B2DD07B88202B2AD07B8814
:10165000402B27D07B88802B24D07B88B3F5807FDC
:1016600020D07B88B3F5007F1CD07B88B3F5806FDA
:1016700018D07B88B3F5006F14D07B88B3F5805FFA
:1016800010D07B88B3F5005F0CD07B88B3F5804F1A
:1016900008D07B88B3F5004F04D040F21F111048EA
:1016A00003F040F87B689A687B881340002B02D0D7
:1016B0000123FB7301E00023FB73FB7B184610370B
:1016C000BD4680BD00080140000C014000100140F3
:1016D0000014014000180140001C0140002001409E
:1016E000A017020880B582B000AF78600B467B80FF
:1016F0007B68174A93421CD07B68164A934218D0E5
:101700007B68154A934214D07B68144A934210D0E8
:101710007B68134A93420CD07B68124A934208D0EC
:101720007B68114A934204D040F269110F4802F0DD
:10173000F9FF7B88002B04D14FF4B5710B4802F000
:10174000F1FF7A887B681A6100BF0837BD4680BD0B
:1017500000080140000C014000100140001401404D
:1017600000180140001C014000200140A0170208A1
:1017700080B582B000AF78600B467B807B68174AEB
:1017800093421CD07B68164A934218D07B68154A56
:10179000934214D07B68144A934210D07B68134A5A
:1017A00093420CD07B68124A934208D07B68114A5E
:1017B000934204D040F279110F4802F0B3FF7B88C6
:1017C000002B04D14FF4BD710B4802F0ABFF7A88B7
:1017D0007B685A6100BF0837BD4680BD00080140E4
:1017E000000C0140001001400014014000180140AD
:1017F000001C014000200140A017020880B586B0FF
:1018000000AF78600B46FB7000233B610023FB6058
:1018100000237B610023BB607B68012B00F0BA8052
:101820007B68022B00F0B6807B68042B00F0B2804E
:101830007B68082B00F0AE807B688B4A934200F0F7
:10184000A9807B68894A934200F0A4807B68884A1B
:10185000934200F09F807B68864A934200F09A8012
:101860007B68854A934200F095807B68834A934267
:1018700000F090807B68824A934200F08B807B6806
:10188000804A934200F086807B687F4A934200F052
:1018900081807B68B3F5805F7CD07B68B3F5EA1FFD
:1018A00078D07B68B3F5EB1F74D07B68B3F5004F3D
:1018B00070D07B68754A93426CD07B68744A9342BF
:1018C00068D07B68734A934264D07B68724A9342C3
:1018D00060D07B68714A93425CD07B68B3F1201F73
:1018E00058D07B686E4A934254D07B686D4A9342CD
:1018F00050D07B686C4A93424CD07B686B4A9342D1
:1019000048D07B686A4A934244D07B68694A9342D4
:1019100040D07B68B3F5011F3CD07B68664A934298
:1019200038D07B68654A934234D07B68644A9342DE
:1019300030D07B68634A93422CD07B68624A9342E2
:1019400028D07B68614A934224D07B68604A9342E6
:1019500020D07B685F4A93421CD07B685E4A9342EA
:1019600018D07B685D4A934214D07B685C4A9342EE
:1019700010D07B685B4A93420CD07B685A4A9342F2
:1019800008D07B68594A934204D040F22A21584833
:1019900002F0C8FEFB78002B07D0FB78012B04D0A7
:1019A00040F22B21524802F0BDFE7B68002B03DA87
:1019B000504BDB697B6102E04E4B5B687B617B686F
:1019C0001B0C03F00F03BB607B689BB23B617B6821
:1019D00003F44013B3F5401F0AD17B6923F0706311
:1019E0007B61444B5B68434A23F07063536021E0A2
:1019F0007B6803F48013002B0ED00322BB6802FA2D
:101A000003F3FB60FB68DB437A6913407B617B690E
:101A100043F070637B610DE07B685B0D1B013A69ED
:101A200002FA03F3DB437A6913407B617B6943F07D
:101A300070637B61FB78002B08D07B685B0D1B011A
:101A40003A6902FA03F37A6913437B617B68002BDE
:101A500003DA284A7B69D36102E0264A7B69536036
:101A600000BF1837BD4680BD1000140030001400C0
:101A700040001600C0001600000118000002180007
:101A80000003180000081A00000C1A0001002000D2
:101A900002002000040020000800200010002000A8
:101AA000400020000001300000023000000430003F
:101AB00000112000002020000100008002000080B2
:101AC00004000080080000801000008020000080DA
:101AD0004000008080000080000100800002008043
:101AE00000040080000800800010008000200080BA
:101AF000A01702080000014080B584B000AF7860F4
:101B00000023FB607B68002B10D07B68B3F5804F0F
:101B10000CD07B68B3F5004F08D07B68B3F5404F1D
:101B200004D040F202310A4802F0FCFD094B5B6828
:101B3000FB60FB6823F44043FB60FA687B68134357
:101B4000FB60044AFB68536000BF1037BD4680BD90
:101B5000D41702080010024080B487B000AF78604C
:101B600000237B6100233B610023FB600023BB60FB
:101B70004D4B5B6803F00C037B617B69042B09D040
:101B80007B69082B0AD07B69002B33D17B68474ADD
:101B90001A6033E07B68454A1A602FE0424B5B686D
:101BA00003F470133B61404B5B6803F48033FB60CC
:101BB0003B699B0C02333B61FB68002B06D13B6900
:101BC0003B4A02FB03F27B681A6017E0364B5B6806
:101BD00003F40033002B06D03B69354A02FB03F2C5
:101BE0007B681A600AE03B69304A02FB03F27B68BB
:101BF0001A6003E07B682D4A1A6000BF2A4B5B68BD
:101C000003F0F0037B617B691B097B61294A7B69D7
:101C100013441B78DBB2BB607B681A68BB68DA4090
:101C20007B685A60204B5B6803F4E0637B617B69EF
:101C30001B0A7B611F4A7B6913441B78DBB2BB60C4
:101C40007B685A68BB68DA407B689A60164B5B68B1
:101C500003F460537B617B69DB0A7B61154A7B6916
:101C600013441B78DBB2BB607B685A68BB68DA4000
:101C70007B68DA600C4B5B6803F440437B617B69F3
:101C80009B0B7B610C4A7B6913441B78DBB2BB6006
:101C90007B68DA68BB68B2FBF3F27B681A6100BF4D
:101CA0001C37BD4680BC70470010024000127A000D
:101CB00000093D00040000201400002080B582B01F
:101CC00000AF78600B46FB707B6823F4AA6323F0B7
:101CD0000703002B02D17B68002B04D140F22B417B
:101CE000114802F01FFDFB78002B07D0FB78012B79
:101CF00004D040F22C410C4802F014FDFB78002B7C
:101D000006D00A4B5A6909497B6813434B6106E0C8
:101D1000064B5A697B68DB43044913404B6100BFA3
:101D20000837BD4680BD00BFD4170208001002402E
:101D300080B582B000AF78600B46FB707A68164BB6
:101D40001340002B02D17B68002B04D140F24A41A2
:101D5000124802F0E7FCFB78002B07D0FB78012B40
:101D600004D040F24B410D4802F0DCFCFB78002B24
:101D700006D00B4B9A690A497B6813438B6106E0D6
:101D8000074B9A697B68DB43054913408B6100BFB1
:101D90000837BD4680BD00BF0200C0FFD41702084F
:101DA0000010024080B582B000AF78600B46FB7037
:101DB0007A68164B1340002B02D17B68002B04D1AC
:101DC00040F26941124802F0ADFCFB78002B07D0CD
:101DD000FB78012B04D040F26A410D4802F0A2FCCE
:101DE000FB78002B06D00B4BDA690A497B6813435A
:101DF000CB6106E0074BDA697B68DB43054913409A
:101E0000CB6100BF0837BD4680BD00BF00360181F1
:101E1000D41702080010024080B582B000AF78608D
:101E20000B46FB707A68164B1340002B02D17B687F
:101E3000002B04D140F2A441124802F073FCFB785D
:101E4000002B07D0FB78012B04D040F2A5410D48B0
:101E500002F068FCFB78002B06D00B4BDA680A49CD
:101E60007B681343CB6006E0074BDA687B68DB4393
:101E700005491340CB6000BF0837BD4680BD00BF99
:101E80000200C0FFD41702080010024080B582B0E3
:101E900000AF78600B46FB707A68164B1340002B3E
:101EA00002D17B68002B04D140F2C341124802F0FA
:101EB00039FCFB78002B07D0FB78012B04D040F2D3
:101EC000C4410D4802F02EFCFB78002B06D00B4BD2
:101ED0001A690A497B6813430B6106E0074B1A69CC
:101EE0007B68DB43054913400B6100BF0837BD46E3
:101EF00080BD00BF00360181D417020800100240E7
:101F000080B584B000AF786039600023FB817B68C6
:101F10006B4A93420BD07B686A4A934207D07B6836
:101F2000694A934203D0A321684802F0FBFB3B6857
:101F30001B88002B12D03B681B88B3F5806F0DD037
:101F40003B681B88B3F5004F08D03B681B88B3F58E
:101F5000404F03D0A6215D4802F0E4FB3B685B885C
:101F6000B3F5827F07D03B685B88002B03D0A721A5
:101F7000564802F0D7FB3B689B88B3F5006F07D04B
:101F80003B689B88002B03D0A821504802F0CAFB75
:101F90003B68DB88002B07D03B68DB88022B03D033
:101FA000A9214A4802F0BEFB3B681B89002B07D0E1
:101FB0003B681B89012B03D0AA21444802F0B2FBE5
:101FC0003B685B89B3F5007F07D03B685B89002BDA
:101FD00003D0AB213D4802F0A5FB3B689B89002B59
:101FE0001FD03B689B89082B1BD03B689B89102B1B
:101FF00017D03B689B89182B13D03B689B89202BFB
:102000000FD03B689B89282B0BD03B689B89302BDA
:1020100007D03B689B89382B03D0AC212B4802F0BA
:1020200081FB3B68DB89002B07D03B68DB89802B79
:1020300003D0AD21254802F075FB3B681B8A002BBD
:1020400003D1AE21214802F06DFB7B681B88FB8128
:10205000FB8903F44153FB813B681A883B685B882A
:1020600013439AB23B689B8813439AB23B68DB8860
:1020700013439AB23B681B8913439AB23B685B894E
:1020800013439AB23B689B8913439AB23B68DB893E
:1020900013439AB2FB891343FB817B68FA891A8048
:1020A0007B689B8B9BB223F400639AB27B689A8314
:1020B0003B681A8A7B681A8200BF1037BD4680BD14
:1020C0000030014000380040003C00400418020885
:1020D00080B582B000AF78600B46FB707B68194A10
:1020E00093420CD07B68184A934208D07B68174A09
:1020F000934204D040F2B711154802F013FBFB786D
:10210000002B07D0FB78012B04D04FF4DC71104872
:1021100002F008FBFB78002B08D07B681B889BB281
:1021200043F040039AB27B681A8007E07B681B8803
:102130009BB223F040039AB27B681A8000BF083735
:10214000BD4680BD0030014000380040003C0040EA
:102150000418020880B582B000AF78600B467B801F
:102160007B680B4A93420CD07B680A4A934208D0A2
:102170007B68094A934204D040F23A21074802F0B2
:10218000D1FA7B687A889A8100BF0837BD4680BD46
:102190000030014000380040003C004004180208B4
:1021A00080B582B000AF78607B680B4A93420CD058
:1021B0007B680A4A934208D07B68094A934204D05C
:1021C00040F24A21074802F0ADFA7B689B899BB236
:1021D00018460837BD4680BD003001400038004039
:1021E000003C00400418020880B584B000AF78605D
:1021F0000B467B800023FB737B681F4A93420CD005
:102200007B681E4A934208D07B681D4A934204D0E3
:1022100040F216311B4802F085FA7B88802B19D0DA
:102220007B88402B16D07B88202B13D07B88102BEB
:1022300010D07B88082B0DD07B88042B0AD07B889C
:10224000022B07D07B88012B04D040F217310D48B8
:1022500002F068FA7B681B899AB27B8813409BB2B4
:10226000002B02D00123FB7301E00023FB73FB7BF7
:1022700018461037BD4680BD003001400038004090
:10228000003C00400418020880B582B000AF7860BE
:102290007B689C4A934243D07B68B3F1804F3FD028
:1022A0007B68994A93423BD07B68984A934237D0E7
:1022B0007B68974A934233D07B68964A93422FD0EB
:1022C0007B68954A93422BD07B68944A934227D0EF
:1022D0007B68934A934223D07B68924A93421FD0F3
:1022E0007B68914A93421BD07B68904A934217D0F7
:1022F0007B688F4A934213D07B688E4A93420FD0FB
:102300007B688D4A93420BD07B688C4A934207D0FE
:102310007B688B4A934203D07D218A4802F002FAFF
:102320007B68784A93420AD101214FF40060FFF79D
:1023300073FD00214FF40060FFF76EFDDEE07B6867
:10234000B3F1804F08D101210120FFF79FFD00214B
:102350000120FFF79BFDD1E07B686B4A934208D1D7
:1023600001210220FFF792FD00210220FFF78EFDE0
:10237000C4E07B68654A934208D101210420FFF73D
:1023800085FD00210420FFF781FDB7E07B68604AEE
:10239000934208D101210820FFF778FD0021082091
:1023A000FFF774FDAAE07B685A4A934208D10121E5
:1023B0001020FFF76BFD00211020FFF767FD9DE067
:1023C0007B68554A934208D101212020FFF75EFD2A
:1023D00000212020FFF75AFD90E07B684F4A93428E
:1023E0000AD101214FF40050FFF716FD00214FF4F0
:1023F0000050FFF711FD81E07B68494A93420AD102
:1024000001214FF40020FFF707FD00214FF40020C9
:10241000FFF702FD72E07B68424A93420AD1012134
:102420004FF48010FFF7F8FC00214FF48010FFF705
:10243000F3FC63E07B683C4A93420AD101214FF4EC
:102440000010FFF7E9FC00214FF40010FFF7E4FC57
:1024500054E07B68354A934208D101214020FFF7C0
:1024600015FD00214020FFF711FD47E07B68304A51
:10247000934208D101218020FFF708FD0021802030
:10248000FFF704FD3AE07B682A4A93420AD1012112
:102490004FF48070FFF7FAFC00214FF48070FFF7D3
:1024A000F5FC2BE07B68244A93420AD101214FF4CA
:1024B0008030FFF7B1FC00214FF48030FFF7ACFC17
:1024C0001CE07B681D4A93420AD101214FF4003081
:1024D000FFF7A2FC00214FF40030FFF79DFC0DE058
:1024E0007B68174A934209D101214FF48020FFF7FE
:1024F00093FC00214FF48020FFF78EFC00BF0837CB
:10250000BD4680BD002C0140000400400008004092
:10251000000C004000100040001400400034014056
:10252000004C0140005001400054014000180040A0
:10253000001C0040002000400040014000440140D9
:10254000004801403418020880B584B000AF7860BC
:1025500039600023FB817B68684A934243D07B68E3
:10256000B3F1804F3FD07B68654A93423BD07B6894
:10257000644A934237D07B68634A934233D07B6886
:10258000624A93422FD07B68614A93422BD07B688A
:10259000604A934227D07B685F4A934223D07B688E
:1025A0005E4A93421FD07B685D4A93421BD07B6892
:1025B0005C4A934217D07B685B4A934213D07B6896
:1025C0005A4A93420FD07B68594A93420BD07B689A
:1025D000584A934207D07B68574A934203D0E72179
:1025E000564802F09FF83B685B88002B13D03B688D
:1025F0005B88102B0FD03B685B88202B0BD03B688F
:102600005B88402B07D03B685B88602B03D0E821B8
:102610004A4802F087F83B68DB88002B0DD03B6806
:10262000DB88B3F5807F08D03B68DB88B3F5007F9B
:1026300003D0E921414802F075F87B681B88FB81D3
:102640007B682E4A934213D07B68324A93420FD064
:102650007B68B3F1804F0BD07B68294A934207D047
:102660007B68284A934203D07B68274A934208D16B
:10267000FB8923F07003FB813B685A88FB89134375
:10268000FB817B68214A93420CD07B68204A9342AD
:1026900008D0FB8923F44073FB813B68DA88FB890F
:1026A0001343FB817B68FA891A803B689A887B68B0
:1026B0009A853B681A887B681A857B680F4A934223
:1026C0000FD07B68134A93420BD07B68184A934221
:1026D00007D07B68174A934203D07B68164A93421F
:1026E00004D13B681B7A9AB27B681A867B68012208
:1026F0009A8200BF1037BD4680BD00BF002C01404C
:102700000004004000080040000C004000100040A1
:102710000014004000340140004C014000500140D2
:102720000054014000180040001C00400020004000
:1027300000400140004401400048014034180208B4
:1027400080B584B000AF7860396000237B810023BE
:10275000FB810023BB817B68904A93423CD07B681D
:10276000B3F1804F38D07B688D4A934234D07B6878
:102770008C4A934230D07B688B4A93422CD07B6842
:102780008A4A934228D07B68894A934224D07B6846
:10279000884A934220D07B68874A93421CD07B684A
:1027A000864A934218D07B68854A934214D07B684E
:1027B000844A934210D07B68834A93420CD07B6852
:1027C000824A934208D07B68814A934204D04FF4F6
:1027D0008E71804801F0A6FF3B681B88002B18D043
:1027E0003B681B88102B14D03B681B88202B10D013
:1027F0003B681B88302B0CD03B681B88602B08D0B3
:102800003B681B88702B04D040F21D11714801F009
:1028100089FF3B685B88002B08D03B685B88012BF5
:1028200004D04FF48F716B4801F07CFF3B681B892B
:10283000002B08D03B681B89022B04D040F21F11EB
:10284000644801F06FFF7B681B8C9BB223F001038F
:102850009AB27B681A847B681B8CFB817B689B889F
:10286000BB817B681B8B7B817B8923F070037B8121
:102870007B8923F003037B813B681A887B891343A0
:102880007B81FB8923F00203FB813B681A89FB896A
:102890001343FB813B685A88FB891343FB817B68A8
:1028A0003E4A93420FD07B68404A93420BD07B68EC
:1028B000454A934207D07B68444A934203D07B68E1
:1028C000434A934259D13B689B88002B08D03B6810
:1028D0009B88042B04D04FF49E713E4801F022FFE8
:1028E0003B685B89002B08D03B685B89082B04D0D0
:1028F00040F23D11374801F015FF3B68DB89B3F525
:10290000007F08D03B68DB89002B04D04FF49F7117
:10291000304801F007FF3B689B89B3F5807F08D002
:102920003B689B89002B04D040F23F11294801F0FD
:10293000F9FEFB8923F00803FB813B685A89FB8978
:102940001343FB81FB8923F00403FB813B689A88D6
:10295000FB891343FB81BB8923F48073BB81BB8953
:1029600023F40073BB813B689A89BB891343BB8105
:102970003B68DA89BB891343BB817B68BA899A803B
:102980007B687A891A833B68DA887B689A867B68D9
:10299000FA891A8400BF1037BD4680BD002C014063
:1029A0000004004000080040000C004000340140DA
:1029B000004C01400050014000540140001800400C
:1029C000001C004000200040004001400044014045
:1029D000004801403418020880B584B000AF786028
:1029E000396000237B810023FB810023BB817B684E
:1029F000854A934224D07B68B3F1804F20D07B6816
:102A0000824A93421CD07B68814A934218D07B68EB
:102A1000804A934214D07B687F4A934210D07B68EF
:102A20007E4A93420CD07B687D4A934208D07B68F3
:102A30007C4A934204D040F26F117B4801F072FE51
:102A40003B681B88002B18D03B681B88102B14D0C8
:102A50003B681B88202B10D03B681B88302B0CD088
:102A60003B681B88602B08D03B681B88702B04D008
:102A70004FF4B8716C4801F055FE3B685B88002B41
:102A800008D03B685B88012B04D040F27111664886
:102A900001F048FE3B681B89002B08D03B681B896E
:102AA000022B04D04FF4B9715F4801F03BFE7B6804
:102AB0001B8C9BB223F010039AB27B681A847B684C
:102AC0001B8CFB817B689B88BB817B681B8B7B811C
:102AD0007B8923F4E0437B817B8923F440737B81F2
:102AE0003B681B881B029AB27B8913437B81FB895D
:102AF00023F02003FB813B681B891B019AB2FB89F1
:102B00001343FB813B685B881B019AB2FB8913432B
:102B1000FB817B683C4A934203D07B683E4A9342E8
:102B200061D13B689B88002B08D03B689B88042BB5
:102B300004D040F28F113C4801F0F4FD3B685B8902
:102B4000002B08D03B685B89082B04D04FF4C87178
:102B5000354801F0E7FD3B68DB89B3F5007F08D01D
:102B60003B68DB89002B04D040F291112E4801F024
:102B7000D9FD3B689B89B3F5807F08D03B689B8972
:102B8000002B04D04FF4C971274801F0CBFDFB891D
:102B900023F08003FB813B685B891B019AB2FB89B0
:102BA0001343FB81FB8923F04003FB813B689B8837
:102BB0001B019AB2FB891343FB81BB8923F4806319
:102BC000BB81BB8923F40063BB813B689B899B006D
:102BD0009AB2BB891343BB813B68DB899B009AB2E5
:102BE000BB891343BB817B68BA899A807B687A89E9
:102BF0001A833B68DA887B681A877B68FA891A84AB
:102C000000BF1037BD4680BD002C014000040040CD
:102C100000080040000C004000340140004C01401E
:102C200000180040004001403418020880B584B00C
:102C300000AF7860396000237B810023FB81002393
:102C4000BB817B687E4A934218D07B68B3F1804F8A
:102C500014D07B687B4A934210D07B687A4A9342B7
:102C60000CD07B68794A934208D07B68784A9342BB
:102C700004D040F2C111774801F054FD3B681B8835
:102C8000002B18D03B681B88102B14D03B681B8886
:102C9000202B10D03B681B88302B0CD03B681B8846
:102CA000602B08D03B681B88702B04D04FF4E17177
:102CB000684801F037FD3B685B88002B08D03B6813
:102CC0005B88012B04D040F2C311624801F02AFD59
:102CD0003B681B89002B08D03B681B89022B04D062
:102CE0004FF4E2715B4801F01DFD7B681B8C9BB2C9
:102CF00023F480739AB27B681A847B681B8CFB81F7
:102D00007B689B88BB817B689B8B7B817B8923F065
:102D100070037B817B8923F003037B813B681A88E6
:102D20007B8913437B81FB8923F40073FB813B6820
:102D30001B891B029AB2FB891343FB813B685B88AA
:102D40001B029AB2FB891343FB817B683C4A934286
:102D500003D07B683E4A934261D13B689B88002B3D
:102D600008D03B689B88042B04D04FF4F07139489D
:102D700001F0D8FC3B685B89002B08D03B685B897D
:102D8000082B04D040F2E111324801F0CBFC3B6843
:102D9000DB89B3F5007F08D03B68DB89002B04D0CA
:102DA0004FF4F1712B4801F0BDFC3B689B89B3F5F2
:102DB000807F08D03B689B89002B04D040F2E31150
:102DC000244801F0AFFCFB8923F40063FB813B68DE
:102DD0005B891B029AB2FB891343FB81FB8923F4B5
:102DE0008063FB813B689B881B029AB2FB8913437B
:102DF000FB81BB8923F48053BB81BB8923F400533F
:102E0000BB813B689B891B019AB2BB891343BB8181
:102E10003B68DB891B019AB2BB891343BB817B688A
:102E2000BA899A807B687A899A833B68DA887B685A
:102E30009A877B68FA891A8400BF1037BD4680BD27
:102E4000002C01400004004000080040000C00403D
:102E5000003401403418020880B584B000AF7860B7
:102E600039600023BB8100237B810023FB817B68C9
:102E70005B4A934218D07B68B3F1804F14D07B68D3
:102E8000584A934210D07B68574A93420CD07B68D3
:102E9000564A934208D07B68554A934204D04FF477
:102EA0000471544801F03EFC3B681B88002B18D08D
:102EB0003B681B88102B14D03B681B88202B10D03C
:102EC0003B681B88302B0CD03B681B88602B08D0DC
:102ED0003B681B88702B04D040F21121454801F05B
:102EE00021FC3B685B88002B08D03B685B88012B8A
:102EF00004D040F212213F4801F014FC3B681B89CA
:102F0000002B08D03B681B89022B04D040F2132110
:102F1000384801F007FC7B681B8C9BB223F480537C
:102F20009AB27B681A847B681B8C7B817B689B8848
:102F3000FB817B689B8BBB81BB8923F4E043BB8116
:102F4000BB8923F44073BB813B681B881B029AB288
:102F5000BB891343BB817B8923F400537B813B688E
:102F60001B891B039AB27B8913437B813B685B8877
:102F70001B039AB27B8913437B817B68184A934277
:102F800003D07B681A4A934218D13B689B89B3F5FA
:102F9000807F08D03B689B89002B04D04FF40C71D4
:102FA000144801F0BFFBFB8923F48043FB813B689D
:102FB0009B899B019AB2FB891343FB817B68FA8949
:102FC0009A807B68BA899A833B68DA887B68A3F821
:102FD00040207B687A891A8400BF1037BD4680BDC7
:102FE000002C01400004004000080040000C00409C
:102FF000003401403418020880B582B000AF786018
:103000000B46FB707B68354A934244D07B68B3F132
:10301000804F40D07B68324A93423CD07B68314A33
:10302000934238D07B68304A934234D07B682F4A31
:10303000934230D07B682E4A93422CD07B682D4A35
:10304000934228D07B682C4A934224D07B682B4A39
:10305000934220D07B682A4A93421CD07B68294A3D
:10306000934218D07B68284A934214D07B68274A41
:10307000934210D07B68264A93420CD07B68254A45
:10308000934208D07B68244A934204D040F229310D
:10309000224801F047FBFB78002B07D0FB78012B7F
:1030A00004D040F22A311D4801F03CFBFB78002B94
:1030B00008D07B681B889BB243F001039AB27B68FF
:1030C0001A8007E07B681B889BB223F001039AB249
:1030D0007B681A8000BF0837BD4680BD002C0140C8
:1030E0000004004000080040000C004000100040B8
:1030F0000014004000340140004C014000500140E9
:103100000054014000180040001C00400020004016
:1031100000400140004401400048014034180208CA
:1031200080B582B000AF78600B467B8013467B7021
:103130007B683D4A934244D07B68B3F1804F40D0D6
:103140007B683A4A93423CD07B68394A934238D0F4
:103150007B68384A934234D07B68374A934230D0F8
:103160007B68364A93422CD07B68354A934228D0FC
:103170007B68344A934224D07B68334A934220D000
:103180007B68324A93421CD07B68314A934218D004
:103190007B68304A934214D07B682F4A934210D008
:1031A0007B682E4A93420CD07B682D4A934208D00C
:1031B0007B682C4A934204D040F26B312A4801F0DC
:1031C000B1FA7B8803F47F43002B02D17B88002B6C
:1031D00004D14FF45B71244801F0A4FA7B78002BF2
:1031E00007D07B78012B04D040F26D311E4801F0EE
:1031F00099FA7B78002B08D07B689B899AB27B88F0
:1032000013439AB27B689A8109E07B689B899AB2E2
:103210007B88DB439BB213409AB27B689A8100BFE4
:103220000837BD4680BD00BF002C014000040040AF
:1032300000080040000C0040001000400014004056
:1032400000340140004C0140005001400054014056
:1032500000180040001C00400020004000400140D9
:1032600000440140004801403418020880B582B093
:1032700000AF78607B681A4A934224D07B68B3F130
:10328000804F20D07B68174A93421CD07B68164A37
:10329000934218D07B68154A934214D07B68144A35
:1032A000934210D07B68134A93420CD07B68124A39
:1032B000934208D07B68114A934204D04FF478714E
:1032C0000F4801F02FFA7B681B899BB223F007039C
:1032D0009AB27B681A8100BF0837BD4680BD00BF27
:1032E000002C01400004004000080040000C004099
:1032F00000340140004C01400018004000400140F3
:103300003418020880B582B000AF78600B467B802D
:1033100013463B807B682E4A934244D07B68B3F1CE
:10332000804F40D07B682B4A93423CD07B682A4A2E
:10333000934238D07B68294A934234D07B68284A2C
:10334000934230D07B68274A93422CD07B68264A30
:10335000934228D07B68254A934224D07B68244A34
:10336000934220D07B68234A93421CD07B68224A38
:10337000934218D07B68214A934214D07B68204A3C
:10338000934210D07B681F4A93420CD07B681E4A40
:10339000934208D07B681D4A934204D040F29B417F
:1033A0001B4801F0BFF93B88002B07D03B88012B5D
:1033B00004D040F29C41164801F0B4F97B687A8849
:1033C0001A857B683A889A8200BF0837BD4680BD5F
:1033D000002C01400004004000080040000C0040A8
:1033E000001000400014004000340140004C014037
:1033F000005001400054014000180040001C0040F3
:1034000000200040004001400044014000480140CD
:103410003418020880B582B000AF78600B46FB70AC
:103420007B68354A934244D07B68B3F1804F40D0EB
:103430007B68324A93423CD07B68314A934238D011
:103440007B68304A934234D07B682F4A934230D015
:103450007B682E4A93422CD07B682D4A934228D019
:103460007B682C4A934224D07B682B4A934220D01D
:103470007B682A4A93421CD07B68294A934218D021
:103480007B68284A934214D07B68274A934210D025
:103490007B68264A93420CD07B68254A934208D029
:1034A0007B68244A934204D040F28451224801F0C0
:1034B00039F9FB78002B07D0FB78012B04D040F2C0
:1034C00085511D4801F02EF9FB78002B08D07B6850
:1034D0001B889BB243F080039AB27B681A8007E096
:1034E0007B681B889BB223F080039AB27B681A80AA
:1034F00000BF0837BD4680BD002C014000040040DD
:1035000000080040000C0040001000400014004083
:1035100000340140004C0140005001400054014083
:1035200000180040001C0040002000400040014006
:1035300000440140004801403418020880B584B0BE
:1035400000AF78600B467B800023FB817B682E4AAE
:1035500093423CD07B68B3F1804F38D07B682B4AD4
:10356000934234D07B682A4A934230D07B68294A00
:1035700093422CD07B68284A934228D07B68274A04
:10358000934224D07B68264A934220D07B68254A08
:1035900093421CD07B68244A934218D07B68234A0C
:1035A000934214D07B68224A934210D07B68214A10
:1035B00093420CD07B68204A934208D07B681F4A14
:1035C000934204D040F2E9511D4801F0ABF87B88EA
:1035D000082B07D07B88002B04D040F2EA51184812
:1035E00001F0A0F87B681B8BFB81FB8923F00803AB
:1035F000FB81FA897B881343FB817B68FA891A83F4
:1036000000BF1037BD4680BD002C014000040040C3
:1036100000080040000C004000340140004C014014
:10362000005001400054014000180040001C0040C0
:10363000002000400040014000440140004801409B
:103640003418020880B584B000AF78600B467B80E8
:103650000023FB817B68234A934224D07B68B3F12B
:10366000804F20D07B68204A93421CD07B681F4A41
:10367000934218D07B681E4A934214D07B681D4A3F
:10368000934210D07B681C4A93420CD07B681B4A43
:10369000934208D07B681A4A934204D040F20261F8
:1036A000184801F03FF87B88082B07D07B88002B57
:1036B00004D040F20361134801F034F87B681B8B9F
:1036C000FB81FB8923F40063FB817B881B029AB298
:1036D000FB891343FB817B68FA891A8300BF10378B
:1036E000BD4680BD002C01400004004000080040A1
:1036F000000C004000340140004C01400018004024
:10370000004001403418020880B584B000AF7860F2
:103710000B467B800023FB817B681C4A934218D0B8
:103720007B68B3F1804F14D07B68194A934210D064
:103730007B68184A93420CD07B68174A934208D0A2
:103740007B68164A934204D040F21A61144800F094
:10375000E9FF7B88082B07D07B88002B04D040F240
:103760001B610F4800F0DEFF7B689B8BFB81FB89B0
:1037700023F00803FB81FA897B881343FB817B6874
:10378000FA899A8300BF1037BD4680BD002C0140E6
:103790000004004000080040000C004000340140DC
:1037A0003418020880B584B000AF78600B467B8087
:1037B0000023FB817B681D4A934218D07B68B3F1DC
:1037C000804F14D07B681A4A934210D07B68194A04
:1037D00093420CD07B68184A934208D07B68174A02
:1037E000934204D040F23261154800F09BFF7B8881
:1037F000082B07D07B88002B04D040F2336110489F
:1038000000F090FF7B689B8BFB81FB8923F40063B6
:10381000FB817B881B029AB2FB891343FB817B6887
:10382000FA899A8300BF1037BD4680BD002C014045
:103830000004004000080040000C0040003401403B
:103840003418020880B582B000AF78600B46FB7078
:103850007B68354A934244D07B68B3F1804F40D0B7
:103860007B68324A93423CD07B68314A934238D0DD
:103870007B68304A934234D07B682F4A934230D0E1
:103880007B682E4A93422CD07B682D4A934228D0E5
:103890007B682C4A934224D07B682B4A934220D0E9
:1038A0007B682A4A93421CD07B68294A934218D0ED
:1038B0007B68284A934214D07B68274A934210D0F1
:1038C0007B68264A93420CD07B68254A934208D0F5
:1038D0007B68244A934204D040F63A01224800F023
:1038E00021FFFB78002B07D0FB78012B04D040F69A
:1038F0003B011D4800F016FFFB78002B08D07B68C9
:103900001B889BB243F002039AB27B681A8007E0DF
:103910007B681B889BB223F002039AB27B681A80F3
:1039200000BF0837BD4680BD002C014000040040A8
:1039300000080040000C004000100040001400404F
:1039400000340140004C014000500140005401404F
:1039500000180040001C00400020004000400140D2
:1039600000440140004801403418020880B582B08C
:1039700000AF78600B467B807B68354A934244D029
:103980007B68B3F1804F40D07B68324A93423CD091
:103990007B68314A934238D07B68304A934234D0B6
:1039A0007B682F4A934230D07B682E4A93422CD0BA
:1039B0007B682D4A934228D07B682C4A934224D0BE
:1039C0007B682B4A934220D07B682A4A93421CD0C2
:1039D0007B68294A934218D07B68284A934214D0C6
:1039E0007B68274A934210D07B68264A93420CD0CA
:1039F0007B68254A934208D07B68244A934204D0CE
:103A000040F65601224800F08DFE7B88002B07D03F
:103A10007B88012B04D040F657011D4800F082FE40
:103A20007B88002B08D07B681B889BB243F0040383
:103A30009AB27B681A8007E07B681B889BB223F0F0
:103A400004039AB27B681A8000BF0837BD4680BD68
:103A5000002C01400004004000080040000C004021
:103A6000001000400014004000340140004C0140B0
:103A7000005001400054014000180040001C00406C
:103A80000020004000400140004401400048014047
:103A90003418020880B582B000AF78600B467B8096
:103AA0007B68274A934244D07B68B3F1804F40D073
:103AB0007B68244A93423CD07B68234A934238D0A7
:103AC0007B68224A934234D07B68214A934230D0AB
:103AD0007B68204A93422CD07B681F4A934228D0AF
:103AE0007B681E4A934224D07B681D4A934220D0B3
:103AF0007B681C4A93421CD07B681B4A934218D0B7
:103B00007B681A4A934214D07B68194A934210D0BA
:103B10007B68184A93420CD07B68174A934208D0BE
:103B20007B68164A934204D040F6F401144800F032
:103B3000F9FD7B687A889A8500BF0837BD4680BD4D
:103B4000002C01400004004000080040000C004030
:103B5000001000400014004000340140004C0140BF
:103B6000005001400054014000180040001C00407B
:103B70000020004000400140004401400048014056
:103B80003418020880B582B000AF78600B467B80A5
:103B90007B68114A934218D07B68B3F1804F14D0F0
:103BA0007B680E4A934210D07B680D4A93420CD03A
:103BB0007B680C4A934208D07B680B4A934204D03E
:103BC00040F61E11094800F0ADFD7B687A889A879F
:103BD00000BF0837BD4680BD002C014000040040F6
:103BE00000080040000C0040003401403418020876
:103BF00080B582B000AF78600B467B807B68124A4C
:103C0000934218D07B68B3F1804F14D07B680F4A81
:103C1000934210D07B680E4A93420CD07B680D4AC9
:103C2000934208D07B680C4A934204D040F62C1192
:103C30000A4800F077FD7B687A88A3F8402000BF2F
:103C40000837BD4680BD00BF002C01400004004085
:103C500000080040000C0040003401403418020805
:103C600080B582B000AF78600B467B807B682F4ABE
:103C7000934244D07B68B3F1804F40D07B682C4A9C
:103C800093423CD07B682B4A934238D07B682A4AC7
:103C9000934234D07B68294A934230D07B68284ACB
:103CA00093422CD07B68274A934228D07B68264ACF
:103CB000934224D07B68254A934220D07B68244AD3
:103CC00093421CD07B68234A934218D07B68224AD7
:103CD000934214D07B68214A934210D07B68204ADB
:103CE00093420CD07B681F4A934208D07B681E4ADF
:103CF000934204D040F636211C4800F013FD7B8827
:103D000003F46143002B02D17B88002B04D140F6E1
:103D10003721164800F006FD7B88DB439AB27B68AA
:103D20001A8200BF0837BD4680BD00BF002C01408D
:103D30000004004000080040000C0040001000405B
:103D40000014004000340140004C0140005001408C
:103D50000054014000180040001C004000200040BA
:103D6000004001400044014000480140341802086E
:103D700080B584B000AF78600B467B800023FB7376
:103D80000023BB8100237B817B68404A934244D05F
:103D90007B68B3F1804F40D07B683D4A93423CD072
:103DA0007B683C4A934238D07B683B4A934234D08C
:103DB0007B683A4A934230D07B68394A93422CD090
:103DC0007B68384A934228D07B68374A934224D094
:103DD0007B68364A934220D07B68354A93421CD098
:103DE0007B68344A934218D07B68334A934214D09C
:103DF0007B68324A934210D07B68314A93420CD0A0
:103E00007B68304A934208D07B682F4A934204D0A3
:103E100040F658212D4800F085FC7B88012B19D0F5
:103E20007B88022B16D07B88042B13D07B88082B31
:103E300010D07B88102B0DD07B88202B0AD07B885C
:103E4000402B07D07B88802B04D040F659211F4897
:103E500000F068FC7B681B8A9AB27B881340BB81A8
:103E60007B689B899AB27B8813407B81BB89002B3E
:103E700005D07B89002B02D00123FB7301E00023D6
:103E8000FB73FB7B18461037BD4680BD002C0140FC
:103E90000004004000080040000C004000100040FA
:103EA0000014004000340140004C0140005001402B
:103EB0000054014000180040001C00400020004059
:103EC000004001400044014000480140341802080D
:103ED00080B582B000AF78600B467B807B682F4A4C
:103EE000934244D07B68B3F1804F40D07B682C4A2A
:103EF00093423CD07B682B4A934238D07B682A4A55
:103F0000934234D07B68294A934230D07B68284A58
:103F100093422CD07B68274A934228D07B68264A5C
:103F2000934224D07B68254A934220D07B68244A60
:103F300093421CD07B68234A934218D07B68224A64
:103F4000934214D07B68214A934210D07B68204A68
:103F500093420CD07B681F4A934208D07B681E4A6C
:103F6000934204D040F682211C4800F0DBFB7B88A2
:103F700003F47F43002B02D17B88002B04D140F651
:103F80008321164800F0CEFB7B88DB439AB27B6826
:103F90001A8200BF0837BD4680BD00BF002C01401B
:103FA0000004004000080040000C004000100040E9
:103FB0000014004000340140004C0140005001401A
:103FC0000054014000180040001C00400020004048
:103FD00000400140004401400048014034180208FC
:103FE00080B58CB000AF786039600023FB6200239D
:103FF000BB6200237B6200233B620023FB617B6882
:104000009D4A934213D07B689C4A93420FD07B68B1
:104010009B4A93420BD07B689A4A934207D07B68B5
:10402000994A934203D0B821984800F07BFB3B6843
:104030001B68002B04D03B681B68954A934203D948
:10404000B921924800F06EFB3B689B88002B08D09A
:104050003B689B88B3F5805F03D0BA218B4800F0A2
:1040600061FB3B68DB88002B12D03B68DB88B3F533
:10407000805F0DD03B68DB88B3F5005F08D03B68FC
:10408000DB88B3F5405F03D0BB21804800F04AFBDA
:104090003B681B89002B0DD03B681B89B3F5806FF3
:1040A00008D03B681B89B3F5C06F03D0BC217748AB
:1040B00000F038FB3B685B891A464FF6F3731340F8
:1040C000002B03D13B685B89002B03D1BD216F48D6
:1040D00000F028FB3B689B89002B12D03B689B8932
:1040E000B3F5807F0DD03B689B89B3F5007F08D086
:1040F0003B689B89B3F5407F03D0BE21634800F045
:1041000011FB3B689B89002B0FD07B685A4A934276
:104110000BD07B68594A934207D07B68584A934238
:1041200003D0C221594800F0FDFA7B68FB617B682F
:104130001B8A9BB2FB62FA6A4CF6FF731340FB6268
:104140003B68DB881A46FB6A1343FB62FB6A9AB240
:104150007B681A827B689B899BB2FB62FA6A4EF687
:10416000F3131340FB623B689A883B681B89134337
:104170009AB23B685B8913439BB21A46FB6A1343AE
:10418000FB62FB6A9AB27B689A817B689B8A9BB2CE
:10419000FB62FA6A4FF6FF431340FB623B689B8960
:1041A0001A46FB6A1343FB62FB6A9AB27B689A82E7
:1041B00007F108031846FDF7CFFCFB692E4A93422E
:1041C00002D17B69BB6201E03B69BB627B689B8972
:1041D0009BB21BB2002B0CDABA6A13469B00134445
:1041E0009A001A443B681B685B00B2FBF3F37B62E6
:1041F0000BE0BA6A13469B0013449A001A443B68CA
:104200001B689B00B2FBF3F37B627B6A214AA2FB33
:1042100003235B091B01FB62FB6A1B09642202FB8F
:1042200003F37A6AD31A3B627B689B899BB21BB209
:10423000002B0CDA3B6ADB003233164AA2FB032365
:104240005B0903F00703FA6A1343FB620BE03B6A66
:104250001B0132330F4AA2FB03235B0903F00F0358
:10426000FA6A1343FB62FB6A9AB27B681A8100BF49
:104270003037BD4680BD00BF0038014000440040DB
:1042800000480040004C0040005000406418020804
:1042900020AA44001F85EB5180B582B000AF786042
:1042A0000B46FB707B681D4A934214D07B681C4A06
:1042B000934210D07B681B4A93420CD07B681A4A09
:1042C000934208D07B68194A934204D04FF4B171ED
:1042D000174800F027FAFB78002B07D0FB78012B5A
:1042E00004D040F26311124800F01CFAFB78002B56
:1042F00008D07B689B899BB243F400539AB27B68D9
:104300009A8107E07B689B899BB223F400539AB2A1
:104310007B689A8100BF0837BD4680BD00380140E8
:104320000044004000480040004C00400050004065
:104330006418020880B586B000AF78600B467B80B9
:1043400013467B7000233B610023FB600023BB60AE
:1043500000237B617B684C4A934214D07B684B4AB4
:10436000934210D07B684A4A93420CD07B68494AFA
:10437000934208D07B68484A934204D040F28911A6
:10438000464800F0CFF97B88282B25D07B8840F267
:104390002772934220D07B8840F2266293421BD042
:1043A0007B8840F22552934216D07B8840F224420B
:1043B000934211D07B8840F6460293420CD07B8812
:1043C00040F66A12934207D07B88602B04D04FF4EA
:1043D000C571324800F0A6F97B78002B07D07B78B6
:1043E000012B04D040F28B112C4800F09BF97B8804
:1043F00040F66A12934210D17B68234A93420CD054
:104400007B68224A934208D07B68214A934204D0B9
:1044100040F28F11214800F085F97B687B617B8831
:10442000DBB25B09DBB23B617B8803F01F03FB60FF
:104430000122FB6802FA03F3BB603B69012B03D145
:104440007B690C337B6109E03B69022B03D17B69FB
:1044500010337B6102E07B6914337B617B78002B36
:1044600006D07B6919687B69BA680A431A6006E05E
:104470007B691968BB68DA437B690A401A6000BF30
:104480001837BD4680BD00BF0038014000440040E1
:1044900000480040004C00400050004064180208F2
:1044A00080B582B000AF78600B467B807B68154A90
:1044B000934214D07B68144A934210D07B68134A0D
:1044C00093420CD07B68124A934208D07B68114A11
:1044D000934204D040F25F210F4800F023F97B881B
:1044E000B3F5007F04D34FF418710B4800F01AF9AC
:1044F0007B88C3F308039AB27B689A8000BF0837B1
:10450000BD4680BD003801400044004000480040E6
:10451000004C0040005000406418020880B582B092
:1045200000AF78607B68114A934214D07B68104AD0
:10453000934210D07B680F4A93420CD07B680E4A9E
:10454000934208D07B680D4A934204D04FF41C710B
:104550000B4800F0E7F87B689B889BB2C3F3080325
:104560009BB218460837BD4680BD00BF00380140E9
:104570000044004000480040004C00400050004013
:104580006418020880B584B000AF78600B467B8069
:104590000023FB737B68324A934214D07B68314A14
:1045A000934210D07B68304A93420CD07B682F4AEC
:1045B000934208D07B682E4A934204D040F2863161
:1045C0002C4800F0AFF87B88012B21D07B88802B12
:1045D0001ED07B88402B1BD07B88202B18D07B885B
:1045E000102B15D07B88B3F5807F11D07B88B3F575
:1045F000007F0DD07B88082B0AD07B88042B07D046
:104600007B88022B04D040F287311A4800F08AF8E8
:104610007B88B3F5007F10D17B68114A93420CD0A0
:104620007B68104A934208D07B680F4A934204D0BB
:1046300040F28B310F4800F075F87B681B889AB206
:104640007B8813409BB2002B02D00123FB7301E057
:104650000023FB73FB7B18461037BD4680BD00BFAF
:10466000003801400044004000480040004C004039
:10467000005000406418020880B483B000AF786036
:10468000FEE7000080B500AF024800F07BF8012093
:10469000FFF7F2FF9818020880B584B000AF786089
:1046A000144B1B68002B02D1124B134A1A60114B9A
:1046B0001B68FB607B68033323F003037B600D4BB7
:1046C0001A687B6813440D4A934207D91AF032FCEA
:1046D00002460C2313604FF0FF3306E0054B1A68C7
:1046E0007B681344034A1360FB6818461037BD46C5
:1046F00080BD00BFD8020020E415002000FC00208F
:1047000080B483B000AF786039607B6801221A60A2
:104710003B68034A1A6000BF0C37BD4680BC704737
:104720001800002080B582B000AF786039603A6828
:104730007968024800F004F8FFF7A4FFF0180208B7
:104740000FB480B582B000AF07F114033B603B6843
:104750003A6980210A481BF071FC78607B68002B65
:1047600005DD7B681946064800F024F878607B6810
:1047700018460837BD46BDE8804004B0704700BF0A
:10478000E002002080B582B000AF786078681AF04F
:1047900066FC03461946786800F00CF801210448CD
:1047A00000F008F8034618460837BD4680BD00BF34
:1047B0001C19020880B582B000AF78603960396892
:1047C000786800F005F8034618460837BD4680BDF6
:1047D000B0B590B000AF786039607A683B68134438
:1047E00093F90030002B0BD104233B637B68FB6201
:1047F0003C6BFD6A20462946ABBE0446BC6236E0EF
:104800003B68FB6330E0FB6B102B28BF10237B63FE
:104810000023BB630EE07B6893F9001007F10C02E4
:10482000BB6B13440A461A70BB6B0133BB637B68D6
:1048300001337B60BA6B7B6B9A42ECD307F10C02BD
:10484000BB6B134400221A7004237B6207F10C0334
:104850003B627C6A3D6A20462946ABBE0446FC6149
:10486000FA6B7B6BD31AFB63FB6B002BCBD13B68E2
:1048700018464037BD46B0BD80B500AF00F0D0F857
:10488000024B034A9A6000BF80BD00BF00ED00E00C
:104890000000000880B500AF00F0F6F800BF80BD52
:1048A00080B584B000AFF860B9607A603B6034488E
:1048B000FFF746FFFB681B6819463248FFF740FFC9
:1048C000FB685B6819463048FFF73AFFFB689B6856
:1048D00019462E48FFF734FFFB68DB6819462C4861
:1048E000FFF72EFFFB681B6919462A48FFF728FFD0
:1048F000FB685B6919462848FFF722FFFB689B6944
:1049000019462648FFF71CFFFB68DB691946244857
:10491000FFF716FF2348FFF713FFB9682248FFF798
:104920000FFF224BDB6A19462148FFF709FF1F4B97
:104930001B6B19461F48FFF703FF1C4BDB6B194627
:104940001D48FFF7FDFEBB6803F08003002B03D07A
:1049500079681A48FFF7F4FEBB6803F40043002BA4
:1049600003D039681648FFF7EBFE1648FFF7E8FE5C
:10497000B9691548FFF7E4FE00BF1037BD4680BD9A
:104980004C1902085C1902086C1902087C1902080B
:104990008C1902089C190208AC190208BC190208FB
:1049A000CC190208DC190208E819020800ED00E041
:1049B000F8190208081A0208181A0208281A020828
:1049C000381A0208481A0208501A020880B485B042
:1049D00000AF78600B467B807B689B69FB60FB685F
:1049E0001B887A889A4214D17B681B68BB60BB68BD
:1049F000032B04D0BB68042B03D000230AE000BFC4
:104A000000E000BF7B689B699A1C7B689A61012368
:104A100000E0002318461437BD4680BC70470000F4
:104A200080B500AF154B1B68144A43F001031360B7
:104A3000124B5A681149124B13404B600F4B1B68C5
:104A40000E4A23F0847323F4803313600B4B1B68EE
:104A50000A4A23F480231360084B5B68074A23F457
:104A6000FE035360054B4FF41F029A6000F07AF882
:104A7000044B4FF000629A6000BF80BD00100240FE
:104A80000000FFF800ED00E080B485B000AF002327
:104A9000FB600023BB6000237B602D4B5B6803F051
:104AA0000C03FB60FB68042B09D0FB68082B0AD0C1
:104AB000FB68002B33D1274B274A1A6033E0254B84
:104AC000254A1A602FE0224B5B6803F47013BB6029
:104AD0001F4B5B6803F480337B60BB689B0C023325
:104AE000BB607B68002B06D1BB681C4A02FB03F34A
:104AF000184A136017E0164B5B6803F40033002B71
:104B000006D0BB68154A02FB03F3124A13600AE0A1
:104B1000BB68114A02FB03F30E4A136003E00D4B1E
:104B20000D4A1A6000BF0A4B5B681B0903F00F03B4
:104B30000B4AD35CDBB2FB60064B1A68FB6822FAB7
:104B400003F3044A136000BF1437BD4680BC7047AE
:104B5000001002402000002000127A0000093D00F1
:104B60002400002080B500AF00F002F800BF80BD37
:104B700080B483B000AF00237B6000233B603A4BDE
:104B80001B68394A43F480331360374B1B6803F4C6
:104B900000333B607B6801337B603B68002B03D1B3
:104BA0007B68B3F5A06FF0D12F4B1B6803F4003383
:104BB000002B02D001233B6001E000233B603B68F7
:104BC000012B4BD1294B1B68284A43F0100313607B
:104BD000264B1B68254A23F003031360234B1B68F5
:104BE000224A43F0020313601F4B1F4A5B68536065
:104BF0001D4B1D4A5B6853601B4B5B681A4A43F4AC
:104C000080635360184B5B68174A23F47C1353602E
:104C1000154B5B68144A43F4E8135360124B1B684E
:104C2000114A43F08073136000BF0F4B1B6803F001
:104C30000073002BF9D00C4B5B680B4A23F0030385
:104C40005360094B5B68084A43F00203536000BF9E
:104C5000054B5B6803F00C03082BF9D100BF0C3740
:104C6000BD4680BC704700BF0010024000200240DB
:104C700080B485B000AF786039600023FB6000230A
:104C8000BB600023BB60BB68632B0DD80023FB60B7
:104C9000FA683B689A4203D2FB680133FB60F7E78E
:104CA000BB680133BB60EEE700BF1437BD4680BC74
:104CB0007047000080B58CB00AAF78600846114696
:104CC0001A460346FB700B46BB7013467B70104AB6
:104CD0007B681A60FA780023089300230793002367
:104CE0000693002305933B7E04933B7D03933B7C1B
:104CF00002937B780193BB780093FF2301217868AE
:104D000000F008F87B6818460837BD4680BD00BF34
:104D10009C1A020880B582B000AF78600846114640
:104D20001A460346FB700B46BB7013467B707B68CC
:104D3000BA781A717B687A785A717B683A7C9A7172
:104D40007B683A7DDA717B683A7E1A727B683A7FBB
:104D50005A727B6897F820209A727B6897F8242013
:104D6000DA727B6897F828201A737B6897F82C20F2
:104D70005A737B6897F830209A73FB78002B03D026
:104D80007B680022DA7302E07B681022DA7300236A
:104D900001221021786800F004F800BF0837BD46F2
:104DA00080BD80B586B002AF7860084611461A46CD
:104DB0000346FB700B46BB7013467B70BB78012B20
:104DC00006D97B68DB7B43F00803DAB27B68DA73D1
:104DD0007B68BA78DA74FA78FB784033009313462C
:104DE00040220021786800F0C4F87B78002B09D0BD
:104DF000BB78012B06D17B68DB7B43F00403DAB27E
:104E00007B68DA737B681B790121184617F060FA1A
:104E10007B685B79FF2B05D07B685B7901211846A5
:104E200017F056FA7B689B790121184617F050FA63
:104E30000023FB607B68DB7B03F01003002B01D0B9
:104E4000082200E00422FB689A420CDD7A68FB68C5
:104E5000134407331B780121184617F039FAFB6811
:104E60000133FB60E6E74CF250317868FFF700FF52
:104E70007B681B790021184601F002FB7B689B7957
:104E80000021184601F0FCFA7B685B79FF2B05D006
:104E90007B685B790021184601F0F2FA7B68DB7BC6
:104EA00003F01003002B1ED10321786800F0B6F93F
:104EB00041F294117868FFF7DBFE0321786800F077
:104EC000ADF941F294117868FFF7D2FE03217868BA
:104ED00000F0A4F996217868FFF7CAFE02217868ED
:104EE00000F09CF923E07B68DB7B43F02003DBB21E
:104EF0001946786800F0DBF841F294117868FFF702
:104F0000B7FE7B68DB7B43F02003DBB21946786891
:104F100000F0CDF896217868FFF7AAFE7B68DB7B6E
:104F200043F02003DBB21946786800F0C0F87B68D4
:104F3000DB7B43F02003DBB21946786800F0B7F85A
:104F40007B6804221A74786800F06CF8786800F0C6
:104F50002CF87B6802225A747B685B7C43F0040364
:104F6000DBB21946786800F0A2F800BF1037BD46E2
:104F700080BD80B485B000AFF860B9607A603B60F6
:104F8000BB68DAB2FB681A757B68DAB2FB685A75DF
:104F90003B68DAB2FB689A75BB69DAB2FB68DA750E
:104FA00000BF1437BD4680BC704780B582B000AFEB
:104FB00078600121786800F07AF84FF4FA61786837
:104FC000FFF756FE00BF0837BD4680BD80B584B0F0
:104FD00000AF78600B46FB701346BB700423FB6088
:104FE000BB78032B01D90323BB707B68DB7CBA78C9
:104FF0009A4203D37B68DB7C013BBB70BB787A6849
:1050000013441A7DFB781344DBB25BB263F07F0379
:105010005BB2DBB21946786800F049F800BF103780
:10502000BD4680BD80B582B000AF78607B681B7CD8
:1050300043F00403DAB27B681A747B681B7C43F08C
:105040000803DBB21946786800F031F800BF083772
:10505000BD4680BD80B586B000AFF8600B467A6073
:10506000FB72FB7A03F00703FB72FB7ADB005BB297
:1050700043F040035BB2DBB21946F86800F017F862
:1050800000237B617B69072B0DDCFB681B681B68B9
:105090007A6979680A4412781146F86898477B69FA
:1050A00001337B61EEE700BF1837BD4680BD80B598
:1050B00082B000AF78600B46FB70FB780022194687
:1050C000786800F04FF800BF0837BD4680BD80B556
:1050D00082B000AF78600B46FB70FB780122194666
:1050E000786800F03FF8012318460837BD4680BDB8
:1050F00080B584B000AF786039600023FB60002386
:10510000FB60386819F0ABFF0246FB689A428CBF1F
:1051100001230023DBB2002B0FD07B681B681B68C8
:10512000FA6839680A4492F90020D2B211467868C8
:105130009847FB680133FB60E3E700BF1037BD46CB
:1051400080BD80B582B000AF78600B46FB707B6895
:105150001B681B68FA7811467868984700BF0837C3
:10516000BD4680BD80B582B000AF78600B46FB7055
:105170001346BB707B681B791A46BB7819461046EC
:1051800001F07EF97B685B79FF2B05D07B685B794A
:105190000021184601F074F97B68DB7B03F01003F3
:1051A000002B05D0FB781946786800F05EF80BE01C
:1051B000FB781B11DBB21946786800F02FF8FB78FA
:1051C0001946786800F02AF800BF0837BD4680BD50
:1051D00080B582B000AF78607B689B79002118466B
:1051E00001F04EF901217868FFF742FD7B689B7959
:1051F0000121184601F044F901217868FFF738FDD4
:105200007B689B790021184601F03AF9642178689F
:10521000FFF72EFD00BF0837BD4680BD80B584B0C6
:1052200000AF78600B46FB700023FB60FB68032B2C
:1052300014DC7A68FB68134407331B781846FA7845
:10524000FB6842FA03F3DBB203F00103DBB2194659
:1052500001F016F9FB680133FB60E7E77868FFF7B8
:10526000B7FF00BF1037BD4680BD80B584B000AF2A
:1052700078600B46FB700023FB60FB68072B14DC97
:105280007A68FB68134407331B781846FA78FB6882
:1052900042FA03F3DBB203F00103DBB2194601F07B
:1052A000EFF8FB680133FB60E7E77868FFF790FFF2
:1052B00000BF1037BD4680BD80B483B000AF7860BA
:1052C0007B6818460C37BD4680BC704780B582B0FD
:1052D00000AF78607B6893F90030002B09D07B68C1
:1052E0005A1C7A6093F90030DBB2184600F0A4F83B
:1052F000F0E700BF0837BD4680BD80B582B000AF83
:1053000078607868FFF7E2FF00BF0837BD4680BDD0
:1053100080B400AF034B93F88030DBB21846BD4633
:1053200080BC70476003002080B483B000AF0346A8
:10533000FB71044AFB7982F8813000BF0C37BD460F
:1053400080BC70476003002080B400AF034B93F82B
:105350008130DBB21846BD4680BC70476003002038
:1053600080B582B000AFFFF7EFFF0346BB71104B73
:1053700093F88030FB71FB790133DBB203F07F03DC
:105380007B710C48FFF7CAF803463B717A79BB7909
:105390009A4205D0FB793979054AD1547B79FB7162
:1053A000034AFB7982F8803000BF0837BD4680BDD4
:1053B000600300200038014080B584B000AF786001
:1053C0000123FB73786817F003F900BF1037BD465F
:1053D00080BD000080B582B000AFFFF799FF0346A3
:1053E000FB710F4B93F88130BB71FA79BB799A420C
:1053F00002D14FF0FF330EE0BB79094AD35C3B602A
:10540000BB790133DBB203F07F03BB71BB79184674
:10541000FFF78AFF3B6818460837BD4680BD00BFCE
:105420006003002080B500AFFFF772FF0346184607
:10543000FFF77AFF00BF80BD80B582B000AF0346A2
:10544000FB71FB799BB219460948FFF729F8402107
:105450000748FFF797F80346002B0CBF01230023F2
:10546000DBB2002B00D0F2E700BF0837BD4680BD9D
:105470000038014080B582B000AF03463960FB714F
:1054800097F907303968184600F020F800BF083750
:10549000BD4680BD80B582B000AF03463960FB7168
:1054A000FB793968184600F03DF800BF0837BD4663
:1054B00080BD80B582B000AF7860396039687868A7
:1054C00000F004F800BF0837BD4680BD80B582B04B
:1054D00000AF786039603B68002B05D17B68DBB298
:1054E0001846FFF7A9FF19E03B680A2B0FD17B682C
:1054F000002B06DA00212D20FFF7BCFF7B685B4202
:105500007B607B680A21184600F035F806E07B686E
:105510003A68D2B21146184600F02DF800BF08379D
:10552000BD4680BD80B582B000AF786039603B6811
:10553000002B05D17B68DBB21846FFF77DFF05E045
:105540003B68DBB21946786800F015F800BF0837F1
:10555000BD4680BD80B584B000AFC7E902017A6066
:105560007B68DBB21A46D7E9020100F061F800BFA0
:105570001037BD4680BD80B58CB000AF78600B465B
:10558000FB707B68002B49D0002387F82F307B68A5
:10559000002B1AD0FA787B68B3FBF2F102FB01F220
:1055A000991A97F92F20D3B20133DBB287F82F3045
:1055B0001346CAB207F130010B4403F8242CFB78E0
:1055C0007A68B2FBF3F37B60E1E797F92F30DAB248
:1055D000013AD2B287F82F20002B14BF01230023F9
:1055E000DBB2002B1ED097F92F3007F130021344A5
:1055F00013F8243C97F92F2007F130010A4412F8E0
:10560000242C092A01D8302200E037221344DBB2CF
:105610005BB200211846FFF72DFFD6E700213020AE
:10562000FFF728FF00BF3037BD4680BD00000000F7
:1056300090B58DB000AFC7E902011346FB714FF082
:1056400000024FF00003D7E9020119F083F8034686
:10565000002B09D000212D20FFF70CFFBB68BB6099
:10566000FB6883F00043FB604FF000033E4CC7E94A
:105670000A34002387F8273097F82720FB799A42CD
:1056800010D237A3D3E90023D7E90A0118F0F0FDBF
:1056900003460C46C7E90A3497F82730013387F8E8
:1056A0002730E9E7D7E90A23D7E9020118F02AFCF5
:1056B00003460C46C7E90234D7E9020119F09AF80B
:1056C00003467B61786918F059FD03460C461A467B
:1056D0002346D7E9020118F013FC03460C46C7E93C
:1056E00006340A217869FFF71DFFFB79002B32D0C1
:1056F00000212E20FFF7BEFEFB795A1EFA71002B07
:1057000014BF01230023DBB2002B24D04FF0000292
:10571000164BD7E9060118F0ABFD03460C46C7E966
:105720000634D7E9060119F03DF803463B610A212A
:105730003869FFF7BEFE386918F030FD03460C46A5
:105740001A462346D7E9060118F0DAFB03460C4651
:10575000C7E90634D0E700BF3437BD4690BD00BF6F
:105760009A9999999999B93F0000E03F0000244027
:1057700080B582B000AF786039607B68012B07D1BB
:105780003B684FF6FF72934202D10348FFF794FD46
:1057900000BF0837BD4680BDE403002080B500AFE0
:1057A0004FF6FF710120FFF7E3FF80BD80B582B0A7
:1057B00000AF7860786817F0F9F9034618460837A3
:1057C000BD4680BD80B582B000AF7860786817F0C4
:1057D00093FA034618460837BD4680BD80B400AF33
:1057E000024B1B781846BD4680BC70473400002031
:1057F00080B400AF044B1B7883F00103DBB2184682
:10580000BD4680BC704700BF3400002080B500AFAB
:1058100017F084F90246024B1A6000BF80BD00BF3A
:10582000CC08002080B483B000AF786039607A681B
:105830003B689A4201D27B6800E03B6818460C370F
:10584000BD4680BC7047000080B500AF102110201D
:10585000FFF7E8FF03461A460249034819F07EFBAA
:1058600000BF80BDE0060020D006002080B500AF5C
:1058700010211020FFF7D6FF03461A4602490348BD
:1058800019F06CFB00BF80BDD0060020E0060020B0
:1058900080B400AF034B03221A7000BFBD4680BC2A
:1058A000704700BF9600002090B583B000AF03465C
:1058B000FB71FB790E4A32F91330184619F0C4F81F
:1058C00003460C49184619F013F903461846FB79AC
:1058D000094A52F82330FC79194619F009F90346B0
:1058E0001A46064B43F8242000BF0C37BD4690BD36
:1058F000580000200AD7233CD81100205C0000206B
:1059000080B584B000AF03463960FB71FB793A681B
:105910001268104941F823200023FB73FB7B002B06
:1059200014D1FB7B0B4A52F823304FF0000118468C
:1059300019F072FA0346002B04D0FB7B054A064996
:1059400042F82310FB7B0133FB73E7E700BF1037FE
:10595000BD4680BDD41100200000404080B588B015
:1059600004AFF860B9607A603B6007F120030293EE
:105970003B7F0193BB6900933B687A68B968F8681C
:105980000BF050FE034618461037BD4680BD90B55B
:105990008BB004AFF860B9603B601346FB71FB68E5
:1059A0007B6178697B69191D7B6903F10802FB68DB
:1059B00003F10C043B460293FB790193BB6800930F
:1059C00023460BF02FFE034618461C37BD4690BDFC
:1059D00080B584B000AFF860B9607A603B603B6826
:1059E0007A68B968F8680BF08BFE00BF1037BD46C7
:1059F00080BD80B582B000AF7860796803200BF07D
:105A0000F3FE00BF0837BD4680BD000080B400AF84
:105A1000074B1B78DAB2074B1B78DBB29A4214BFF4
:105A200001230023DBB21846BD4680BC704700BF8F
:105A3000541100205711002080B483B000AF0346FA
:105A4000FB800A4B1B78002B01D0002309E0084B98
:105A5000B3F90030B7F906209A42B4BF01230023FE
:105A6000DBB218460C37BD4680BC7047C614002018
:105A70008A00002080B582B000AF0346FB71002091
:105A800000F00EF80346184619F00EFA03461BB252
:105A90001846FFF7D1FF034618460837BD4680BDBC
:105AA00080B483B000AF0346FB71034B1B681846FC
:105AB0000C37BD4680BC7047A814002080B483B06A
:105AC00000AF0346FB71044BB3F9003018460C37A6
:105AD000BD4680BC704700BFB014002080B483B0C6
